:100000000C9496040C94B5040C94B5040C94B504AB
:100010000C94B5040C94B5040C94B5040C94B5047C
:100020000C94B5040C94B5040C94B5040C94B5046C
:100030000C94B5040C94B5040C94B5040C94B5045C
:100040000C94B5040C94B5040C94B5040C94B5044C
:100050000C94B5040C94B5040C94B5040C94B5043C
:100060000C94B5040C94B5040C94B5040C94B5042C
:100070000C94B5040C94B5040C94B5040C94B5041C
:100080000C94B5040C94B5040C94B504AC69B56932
:10009000BE69F3692A6A6D6A726A796A926AA66AA7
:1000A000C36A9669CF69E969D269D569D869DB699C
:1000B000DE69E169036A1D6A066A096A0C6A0F6AE9
:1000C000126A156A3B6A5D6A3F6A436A476A4B6A0D
:1000D0004F6A536AEB6ADC6AEB6AE26AEB6AE56ACA
:1000E000EB6AE86AEB6A8F6AEB6ADF6AEB6AD36AEB
:1000F000D66AD96ADC6ADF6AE26AC06AE56A8F6A30
:10010000E86AEB6A05A84CCDB2D44EB93836A902DC
:100110000C50B9918688083CA6AAAA2ABE00000005
:10012000803F0664EC1B3C04BC163E3BE5B93CC971
:100130003C37C29E5A3D660498083EEA69AAAA3E28
:10014000000000803F07634236B79BD8A71A396882
:100150005618AEBAAB558C1D3CB7CC5763BD6DED90
:10016000FD753EF6177231BF000000803F080000A9
:1001700000BE922449123EABAAAA2ABECDCCCC4CDA
:100180003E00000080BEABAAAAAA3E00000000BF4D
:10019000000000803F0000000000084178D3BB430E
:1001A00087D1133D190E3CC3BD4282AD2B3E68EC96
:1001B0008276BED98FE1A93E4C80EFFFBE01C4FF1D
:1001C0007F3F00000000002307022707022B0702E1
:1001D0002F070233070237070745070249070A5D61
:1001E00007096F070273070277070683070287076D
:1001F0000591070295070299070AAD0704B507099B
:10020000C70703CD0702D10702D50702D90704E1CA
:100210000702E50702E90702ED0702F10703F70706
:1002200002FB07030108020508030B08031108027B
:100230001508031B0802BD65BE7061B32E00B3B381
:100240006FE300B7BD61C065BDB865003C3D003ED1
:100250003D00B279E3B8BBC4BDB8BAB800B3C3209F
:10026000BF6FC0BD6F00B32063B36F65BC2079BCA6
:10027000653F00B3B365E3B8BF6500A000A0E3002D
:10028000B3BABB2E00B3BABBC6C0B8BF6500B7B324
:100290006FBD3A00542EB300542E6F00542E7000E0
:1002A000542EBE00B3636500BEBD00B3BF006370D3
:1002B00000C0BF00BEBF0063B200B36300B863BE3E
:1002C0002EBE61706FBBC400E3BDB820BD65E365A1
:1002D000BBB800E3BDB83A00E361BF2EBF65BCBE4A
:1002E0002E00B8BDB365702E00B863BE2EE361BFAB
:1002F0002E00B8BDE42E206F20E3BD6500BA61BBBF
:10030000C4BA2E00BA6FBDB32E20BF65BCBE2E008E
:10031000BC65BDC600BC65BB6FE3B8C700BC65BBB0
:100320003A00BC6563C7E500BD61BE6FBCB8BD6186
:10033000BBBAB800BD61BE6FBC2E00BD6FB32EBE90
:1003400061702E00BD6520BC6FB6BD6F006FBFBA77
:10035000006FB2E6B865006FB2BC65BD20BD61003C
:10036000BE61706FBBC400BE6FE363B365BFBA61AB
:1003700000BE6F79BC6FBBC061BDB8C600BE6FE385
:100380006FB6E3B8BF652E2E2E00BE706FB4B800F6
:1003900061B3BF6FBE65702EB3702E00BE70B8B271
:1003A0006F7020B761BE79E665BD00B3BE6570B3FE
:1003B000C3653F00636F6FB2E62E006FE3B8BD20E8
:1003C0007061B700BF61B9BC657061005400BF6562
:1003D00070BC6F63BF61BF0079BF65702E002D2DAB
:1003E0002D00B37065BCC72FE361BF6100E4B8BBEB
:1003F000C4BF703A00B46FE300C061632063B8B457
:10040000BD2E00542EBE7000542E6FB200236572B4
:10041000726F7200BD65206FBFB32E004D454D0059
:100420004949430074BD203C2074B300BD6FB361E3
:10043000C720BB79BD6100A7E03A00AA3A004C3A58
:1004400000313233343536373800303132333435D9
:10045000363738390031320054BC0048BE3A0054B7
:100460007000A84154A54D4100762E302E332E3118
:10047000004E20BE6FB30054BD0054B300204300B3
:1004800030359600256D2025332E316620256D00F0
:10049000256320256D00256D2575202554202563B5
:1004A00000254420256D005425752025332E316606
:1004B0002D25332E316620256300256D2025730000
:1004C0002523255400252374313A25332E31662007
:1004D00074323A25332E3166002563253275257333
:1004E000002532752B202573002523254420256DFA
:1004F00000256320256D20257500256D25332E32BE
:100500006620256D256600256D25332E3266202553
:100510006D257520256D0025753A256D001F080293
:100520002308022708022B08022F0802330802378B
:1005300008023B08023F08024308024708024B0832
:10054000024F0802530802256D00256D20256D001D
:1005500025730032303132323031320025730025BC
:100560006D20256600256D20256C6400256D2025F5
:100570006C7500256D20256D00256D2025750025E5
:100580006D00256D20255400257300256D20255410
:1005900000257300254400256D0041A042A1E045DF
:1005A000A3A4A5A64BA74D484FA8504354A9AA58A9
:1005B000E1ABACE2ADAE62AFB0B161B2B3B4E36592
:1005C000B6B7B8B9BABBBCBD6FBE7063BF79E478CB
:1005D000E5C0C1E6C2C3C4C5C6C71F0E0400000003
:1005E00000003F00000000003F000006090906006F
:1005F0000000000001021408000000040E0E0E1F8F
:100600000400000E1F1F1F0E0000000E1111110E1E
:100610000000000704041C0C04002566202573005C
:10062000005EBCE2613FDD83C29C7E20A3FD1F41D2
:100630009DC3217FFCA2401E5F01E3BD3E6082DCC2
:10064000237D9FC1421CFEA0E1BF5D0380DE3C62B2
:10065000BEE0025CDF81633D7C22C09E1D43A1FFA2
:100660004618FAA427799BC584DA3866E5BB590792
:10067000DB856739BAE406581947A5FB7826C49A82
:10068000653BD987045AB8E6A7F91B45C6987A2472
:10069000F8A6441A99C7257B3A6486D85B05E7B962
:1006A0008CD2306EEDB3510F4E10F2AC2F7193CD52
:1006B000114FADF3702ECC92D38D6F31B2EC0E5042
:1006C000AFF1134DCE90722C6D33D18F0C52B0EE32
:1006D000326C8ED0530DEFB1F0AE4C1291CF2D7322
:1006E000CA947628ABF517490856B4EA6937D58B12
:1006F0005709EBB536688AD495CB2977F4AA481602
:10070000E9B7550B88D6346A2B7597C94A14F6A8F1
:10071000742AC896154BA9F7B6E80A54D7896B35E1
:10072000256600BD58D35FD65700352F49A42E2D1E
:1007300046C55C2646B0342A491B49DD480C49FDB4
:1007400048D348C948C44879578F474452EE43F7C5
:1007500045AB4368432F474F4BF851AC51BF484C12
:1007600051114E0B4E054EFF4DF94DF34DED4DBA67
:1007700048B34CB5482B5722479E502A43EC422899
:100780004B4450B048A3561547A44FF7554B554A14
:100790004FAB48FB4BA6482F340847DF4E794256F3
:1007A0004161457E5AB7453642F341A746A148AD5F
:1007B0004CA74CA14C9C489248B44E854E88484A60
:1007C0004E6E48174E51484C48D5525E5338480C2F
:1007D0005F1F466E5D3348EC542E4824481A48107B
:1007E00048AF545554DA53BF33FC47465FF7475779
:1007F00046E247CA4757469A46882C9A4648455784
:1008000046F84B175B8D4648455746804648455746
:1008100046DD47D647734648455746D1476446FAB2
:10082000493949C547BE47B947F444B947C344B9F4
:10083000479244B94761446E3D363D313D263DD235
:10084000524C53763578405440E83FC43F253F0131
:100850003F683E443EAA3D626C696E6B2031006287
:100860006C696E6B203200626F6D62006368616F4D
:1008700073006D617263680073696C656E63650017
:10088000656D657267650070756D0070696D0063F8
:100890006C61766100636F6E76657200BD2E20BE5E
:1008A0006FBB79BC6563C7E500BE65702E20C0656F
:1008B000BFB36570BFC400BD61702E20BE6FBBBDED
:1008C00061C700BE6FBBBD61C720BB79BD61007948
:1008D000B2C3B32E20BE6FBBBD61C700BE6F632E17
:1008E00020C065BFB36570BFC400636570BE20BB28
:1008F00079BDC300E3BDB820BD65E32E0063BF61D1
:10090000BF796300BFB8BE20B3C3782E00E32EB317
:100910000063BF706FBA61005254430044533136D4
:1009200033310044533138423230000011241FBEAD
:10093000CFEFD0E1DEBFCDBF11E0A0E0B1E0E2E457
:10094000F2EE00E00BBF02C007900D92A23EB1078D
:10095000D9F717E0A2EEB1E001C01D92A93DB107A1
:10096000E1F70E9463610C941F710C940000FF92E8
:100970000F931F93182FF62E072F0E943D2E8823CA
:10098000E1F0412F50E02091E70130E002C03595C1
:1009900027951A95E2F720FF12C0FA01EE0FFF1F0C
:1009A000E40FF51FE451FE4F8F2D902FDC0183E003
:1009B0000D9001928150E1F702C080E001C081E01A
:1009C0001F910F91FF900895FF920F931F93182F7F
:1009D000F62E072F0E94202E8823E1F0412F50E0B1
:1009E0002091E80130E002C0359527951A95E2F78D
:1009F00020FF12C0FA01EE0FFF1FE40FF51FE451B4
:100A0000FE4F8F2D902FDC0183E00D9001928150DD
:100A1000E1F702C080E001C081E01F910F91FF90DB
:100A20000895FF920F931F93182FF62E072F0E9401
:100A3000032E8823E1F0412F50E02091E90130E0BE
:100A400002C0359527951A95E2F720FF12C0FA01EA
:100A5000EE0FFF1FE40FF51FE451FE4F8F2D902F77
:100A6000DC0183E00D9001928150E1F702C080E04B
:100A700001C081E01F910F91FF900895A0E0B0E0C8
:100A8000E4E4F5E00C94EA708C01EB01FC01808158
:100A90008D3229F40F5F1F4FBB24B39401C0BB24D8
:100AA000F8018081882341F480E090E0DC018883B4
:100AB0009983AA83BB836CC080E090E0DC018883CB
:100AC0009983AA83BB83FF243CC08E3231F4FF207C
:100AD00009F05EC0FF24F39432C08F708A3008F0B2
:100AE00057C0688179818A819B8120E030E040E2B3
:100AF00051E40E94346E6B01E82EA92E862F9D2DA5
:100B0000AE2DBA2D88839983AA83BB83F8016081B7
:100B100070E06F707070882777FD8095982F0E9425
:100B2000F46C9B01AC016C2D7D2D8E2D9A2D0E94B5
:100B3000EE6B688379838A839B83F110F3940F5F54
:100B40001F4FF8018081882309F0BFCFFF20A1F05B
:100B5000FA9400E00FC0688179818A819B8120E04E
:100B600030E040E251E40E94596C688379838A83C3
:100B70009B830F5F0F1578F3BB2061F0888199810B
:100B8000AA81BB81B05888839983AA83BB8302C0A2
:100B900080E001C081E0CDB7DEB7EAE00C940671D9
:100BA0001BBA1ABAA69AAE98A79AAF9AA49AAC9A08
:100BB00080E69AEECF9B02C00197E1F7A49AAC9829
:100BC000A79AAF981BBA8FEF8ABB0895282F2F7072
:100BD0002A3070F482958F708A3060F4880F982FD5
:100BE000990F990F980F920FFB01908381E0089560
:100BF00080E0089580E008951F93CF93DF93182F2E
:100C0000EB018A3010F4888320C0843600F5682F09
:100C100070E080E090E00E94F26C0E94C66CCB0114
:100C20006AE070E00E949970462F4295407F410F24
:100C3000CB019B01220F331F53E0880F991F5A9558
:100C4000E1F7280F391F421B488381E001C080E093
:100C5000DF91CF911F910895DC0120E030E080E02A
:100C600070E008C0ED91E827F0E0E05EF94F849174
:100C70002F5F3F4F26173707A8F30895AF92BF9213
:100C8000CF92DF92EF92FF920F931F9320E030E01C
:100C900040E851E40E94346E5B016C017B2D9D2D78
:100CA0000E94C16CE62EF72E082F192FC801B7013C
:100CB0000E94F46C9B01AC016A2D7B2D8C2D9D2D27
:100CC0000E94ED6BD62EC72EB82EA92EA601950137
:100CD000652F742F832F922F20E030E040E05FE3F8
:100CE0000E94306E87FD06C00894E11CF11C011DB6
:100CF000111D13C0A6019501652F742F832F922F0C
:100D000020E030E040E05FEB0E94526C18162CF0BF
:100D10000894E108F10801091109C7011F910F9119
:100D2000FF90EF90DF90CF90BF90AF900895803C00
:100D300030F0805CE82FF0E0E656FA4F8491089599
:100D4000A4E0B0E0E6EAF6E00C94F2708091E201F3
:100D500081FF0FC081E08C8388E192E064E0AE0106
:100D60004F5F5F4F0E947B368091E201887F8093C6
:100D7000E2012496E2E00C940E71A7E0B0E0E3EC0F
:100D8000F6E00C94F170182F82E189831A821B829D
:100D90008091E20182FF13C08BE18F831C8381E08D
:100DA0008D8387E292E064E0AE014C5F5F4F0E946A
:100DB0007B36812FBE016F5F7F4F0E949421279663
:100DC000E3E00C940D71A8E0B0E0E9EEF6E00C94DD
:100DD000F170182F80E2898392E19A839B838C8340
:100DE000812F90E02BE030E0829FF001839FF00D97
:100DF000929FF00D1124E55CFC4F29813A814B81D3
:100E00005C8126833783408751878091E20182FF8E
:100E100013C08CE188871D838CE08E8387E292E08B
:100E200064E0AE014B5F5F4F0E947B36812FBE01B5
:100E30006F5F7F4F0E9477212896E3E00C940D713D
:100E4000A7E0B0E0E6E2F7E00C94F170182F198209
:100E50001A8288E08B838091E20182FF13C080E2D6
:100E60008F831C8382E08D8387E292E064E0AE0191
:100E70004C5F5F4F0E947B36812FBE016F5F7F4FBB
:100E80000E94FC1D2796E3E00C940D71A7E0B0E0F2
:100E9000ECE4F7E00C94F170182F19821A8280E1CB
:100EA0008B838091E20182FF13C081E28F831C83D8
:100EB00083E08D8387E292E064E0AE014C5F5F4F98
:100EC0000E947B36812FBE016F5F7F4F0E94DF1D26
:100ED0002796E3E00C940D718091C107882329F0D7
:100EE000A59AAD981092C1070895A59AAD9A81E090
:100EF0008093C10708958150803448F4E82FF0E0D2
:100F0000EE0FFF1FE45FFE4F2081318102C02EED06
:100F100033E0C9010895E091F502F091F6022091C5
:100F2000F70293812917C9F4958120913A0222335F
:100F300031F4992311F0915009C0982F07C028333C
:100F400039F4981710F49F5F01C090E095830895DD
:100F50002D3311F0253309F496870895DC01842F91
:100F6000952F9D01260F311D04C0FC010196E491CF
:100F7000ED93A217B307C9F70895FF920F931F933C
:100F8000F82E8B010E9494218823E1F08F2D90E0B0
:100F90002BE030E0829FF001839FF00D929FF00DD7
:100FA0001124DF01A55CBC4F8C9182FF0DC0E45C75
:100FB000FC4F802F912FDC0183E00D900192815036
:100FC000E1F702C080E001C081E01F910F91FF9026
:100FD0000895FF920F931F93F82E8B010E94FC1D22
:100FE0008823E1F08F2D90E02BE030E0829FF0012C
:100FF000839FF00D929FF00D1124DF01A55CBC4F83
:101000008C9183FF0DC0E45CFC4F802F912FDC019D
:1010100083E00D9001928150E1F702C080E001C0B1
:1010200081E01F910F91FF900895FF920F931F93FE
:10103000F82E8B010E94DF1D8823E1F08F2D90E0B8
:101040002BE030E0829FF001839FF00D929FF00D26
:101050001124DF01A55CBC4F8C9184FF0DC0E45CC2
:10106000FC4F802F912FDC0183E00D900192815085
:10107000E1F702C080E001C081E01F910F91FF9075
:1010800008951F93CF93DF93182FEB010E947721D0
:101090008823B9F0812F90E02BE030E0829FF001AF
:1010A000839FF00D929FF00D1124E55CFC4F888129
:1010B0009981AA81BB8186839783A087B18781E0CC
:1010C00001C080E0DF91CF911F910895FB0190E076
:1010D0002BE030E0829FD001839FB00D929FB00D36
:1010E0001124A55CBC4F1A968C911A97823079F026
:1010F000833019F08130C9F50FC0928180912102AF
:10110000981799F5938180912202981771F5918132
:1011100080912002981759F52081283208F13091EA
:101120001F023832E8F08091200290912102843031
:1011300061F0863051F0893041F0813131F08230F8
:1011400031F4992331F098E205C090E303C091E3B4
:1011500001C099E2921720F481E0931731F408C09E
:1011600081E090911F02291719F080E0089580E036
:10117000089590913402992321F0909135029B308B
:1011800049F440933502E4E3F2E091E090933402B5
:10119000848365830895A7E0B0E0E1EDF8E00C9466
:1011A000EB70B82E282F30E08BE090E0289F600194
:1011B000299FD00C389FD00C1124EBE3EE2EE3E0F6
:1011C000FE2EEC0CFD1CF7018081897E88608083F7
:1011D0008B2D8E010F5F1F4FB8010E945618882378
:1011E000E9F08CE192E0B801AE014C5F5F4F0E94E4
:1011F000500B882399F06C817D818E819F81A6019F
:10120000445C5C4F0E94B90A882341F084E06B2D56
:10121000F70145810E94B90881E001C080E027966E
:10122000E9E00C940771A6E1B0E0E9E1F9E00C9483
:10123000E670D82E282F30E08BE090E0289F7001D8
:10124000299FF00C389FF00C1124C701845C9C4F3F
:101250006CE172E0AE01495F5F4F0E94160B88237C
:1012600009F465C08D2D8E010F5F1F4FB8010E94DC
:101270005618882309F45BC0FBE4AF2EFAE0BF2EBA
:10128000C801BE01655F7F4FF5010995882309F408
:101290004EC06B847C848D849E848BE393E0E80E47
:1012A000F91EF701C4808E010C5F1F4F8D2DB80110
:1012B0000E9433188823D9F1C801BE01615F7F4FB6
:1012C000F5010995882399F1F701648170E0615077
:1012D0007040882777FD8095982F2F853889498918
:1012E0005A890E946E707B018C016C2D70E080E049
:1012F00090E0A40193010E946E70E60EF71E081F95
:10130000191F8F819885A985BA858E159F05A0071D
:10131000B10768F4DB8A1D8A84E292E066E0AE01E0
:101320004D5E5F4F0E947B368D2D0E94CB086696E6
:10133000EEE00C94027187E060E040E00E94B908A2
:101340000895A7E0B0E0E7EAF9E00C94ED70D82E3C
:10135000E82EFF2481E090E00D2C02C0880F991F39
:101360000A94E2F7382F30952091E6012323209349
:10137000E6012091E70123232093E7012091E90171
:1013800023232093E9012091E801282B2093E801F1
:101390008D2D8E010F5F1F4FB8010E94A119882368
:1013A00019F18CE192E0B801AE014C5F5F4F0E94F1
:1013B000500B8823C9F06C817D818E819F81A701AC
:1013C000440F551F4E0D5F1D44515E4F0E94B90AD8
:1013D000882351F0F701EB51FE4F81E06D2D47A1BD
:1013E0000E94B90881E001C080E02796E7E00C94F4
:1013F0000971A4E0B0E0EFEFF9E00C94F270BC01E9
:101400008CE192E0AE014F5F5F4F0E94500B88234A
:1014100069F069817A818B819C8145ED57E00E945A
:10142000B90A83E08093D3071092D4072496E2E0B0
:101430000C940E71A3E0B0E0E0E2FAE00C94F070DE
:101440008C01FC018081BE016F5F7F4F0E94E60529
:101450008823E1F089818831C8F4F8018181BE01D7
:101460006E5F7F4F0E94E605882381F08A818C336E
:1014700068F4F8018281BE016D5F7F4F0E94E6052E
:10148000882321F081E09B819C3308F080E0239643
:10149000E4E00C940C71A3E0B0E0E1E5FAE00C9418
:1014A000EE707C018B01FC018281BE016F5F7F4F7A
:1014B0000E94E605882309F457C089818C3308F01F
:1014C00053C090E0A0E0B0E0F80180839183A28354
:1014D000B383F7018181BE016E5F7F4F0E94E605F5
:1014E000882309F441C06A816C33F0F570E080E034
:1014F00090E02CE330E040E050E00E946E709B01F1
:10150000AC01F80180819181A281B381820F931F88
:10151000A41FB51F80839183A283B383F7018081C9
:10152000BE016D5F7F4F0E94E6058823E9F06B8165
:101530006831D0F470E080E090E020E13EE040E0EF
:1015400050E00E946E709B01AC01F8018081918196
:10155000A281B381820F931FA41FB51F8083918343
:10156000A283B38381E001C080E02396E6E00C947F
:101570000A71A0E0B0E0EFEBFAE00C94ED707B01B3
:101580008C01EA0108C020E83EEA4EEF5FEFE20E70
:10159000F31E041F151F30E8E31631E5F30631E0B2
:1015A000030730E0130778F780E009C020EF31EF40
:1015B0004FEF5FEFE20EF31E041F151F8F5F30E148
:1015C000E3163EE0F30630E0030730E0130770F760
:1015D000DD2409C024EC3FEF4FEF5FEFE20EF31E76
:1015E000041F151FD3943CE3E316F1040105110514
:1015F00088F7BE010E94FC05882389F0BE016F5F59
:101600007F4F8D2D0E94FC05882349F0BE016E5F3F
:101610007F4F8E2D0E94FC0591E0882309F490E015
:10162000892FCDB7DEB7E7E00C940971A8E0B0E0F0
:10163000ECE1FBE00C94EC706B017A010BE41AE036
:10164000BE016F5F7F4FF8010995882321F1C60124
:10165000BE016B5F7F4FF80109958823E1F08D8112
:101660009E81AF81B88529813A814B815C81821747
:101670009307A407B50720F480589E4AAE4FBF4F8A
:10168000821B930BA40BB50BF70180839183A2837C
:10169000B38381E001C080E02896E8E00C940871F3
:1016A000A8E0B0E0E6E5FBE00C94EC706B017A0199
:1016B0000BE41AE0BE016F5F7F4FF80109958823A4
:1016C000D9F0C601BE016B5F7F4FF80109958823F1
:1016D00099F089819A81AB81BC812D813E814F81B6
:1016E0005885820F931FA41FB51FF7018083918334
:1016F000A283B38381E001C080E02896E8E00C94E7
:101700000871FC01DB0190818C918917A0F098177A
:10171000A0F0918111968C911197891760F098171C
:1017200060F0228112969C911297921740F081E00E
:10173000291730F402C081E0089580E0089581E027
:101740000895A3E0B0E0E7EAFBE00C94F0708C01B0
:10175000FC018381982F9F709A3008F048C08295D1
:101760008F708A3008F043C08281BE016F5F7F4F67
:101770000E94E6058823D9F189818823C1F183700D
:101780008983F8018181BE016E5F7F4F0E94E6056B
:10179000882369F18A8181508C3048F5F801808175
:1017A000BE016D5F7F4F0E94E605882301F19B819A
:1017B0009923E9F08A81843031F0863021F0893034
:1017C00011F08B3021F481E09F3190F010C0823015
:1017D00059F48981882321F081E09D3148F007C0C8
:1017E00081E09E3128F003C081E0903208F080E073
:1017F0002396E4E00C940C71A4E0B0E0E2E0FCE09D
:101800000C94F0708C01FC018181BE016F5F7F4FF1
:101810000E94E605882309F45FC0F8018081BE01BB
:101820006E5F7F4F0E94E605882309F455C0F801DA
:101830008281BE016D5F7F4F0E94E605882309F417
:101840004BC0F8018381BE016C5F7F4F0E94E605AB
:10185000882309F441C02C81622F70E084E690E077
:10186000689FA001699F500D789F500D11248B81B6
:10187000480F511D8981833028F4415050409A818E
:101880009D5F9A839A81FA01E90FF11D569547955C
:1018900056954795E40FF51F2695269530E0261BB3
:1018A000370B9FE1899FC00111240A966CE070E01C
:1018B0000E94AD70260F371F2E0F3F1FC90167E032
:1018C00070E00E94AD7021E030E002C0220F331FB3
:1018D0008A95E2F7822F01C080E02496E4E00C9420
:1018E0000C71A4E0B0E0E7E7FCE00C94EC707C0144
:1018F000C62E8A01FC018181BE016F5F7F4F0E946D
:10190000E605882309F48DC0F7018081BE016E5F72
:101910007F4F0E94E605882309F483C0F701828186
:10192000BE016D5F7F4F0E94E605882309F479C0F0
:10193000F7018381BE016C5F7F4F0E94E60588231B
:1019400009F46FC08A818C0D2B81422F43709981DD
:101950003C8151E0C52ED12C943031F0963021F0ED
:10196000993011F09B3021F48F3130F18E510FC03E
:10197000923051F4442321F08D31F0F08C5107C0A6
:101980008E31D0F08D5103C08032B0F08F519F5F07
:101990009D3060F0233631F4333609F442C03F5FA6
:1019A00020E001C02F5F422F437091E00894C11CDA
:1019B000D11CC114D10481F699838A832B833C8383
:1019C0008A81B8010E94FC05882359F1F1E0CF1605
:1019D000D10471F4F7018181F8018183F7018281DB
:1019E000F8018283F7018381F801838391E01AC0B3
:1019F000B8016F5F7F4F89810E94FC05882389F0C1
:101A0000B8016E5F7F4F8B810E94FC05882349F0EF
:101A1000B8016D5F7F4F8C810E94FC0591E08823A7
:101A200009F490E0892F2496E8E00C940871A4E072
:101A3000B0E0EDE1FDE00C94ED707C01D62E8A0162
:101A4000FC018081BE016F5F7F4F0E94E605882305
:101A500009F488C08981D816B0F48D198983B8013A
:101A60000E94FC05882309F47DC0F7018181F801FB
:101A70008183F7018281F8018283F7018381F80174
:101A8000838391E070C0F7018181BE016E5F7F4F5B
:101A90000E94E605882309F465C0F7018281BE0132
:101AA0006D5F7F4F0E94E605882309F45BC0F70154
:101AB0008381BE016C5F7F4F0E94E605882309F495
:101AC00051C02B81522F53709A814C81898125C03E
:101AD000913069F4222311F0215005C0442309F408
:101AE00041C0415023E6522F53709CE011C09150E9
:101AF000943061F0963051F0993041F09B3031F0E4
:101B0000923031F4552331F43DE105C03EE103C08C
:101B10003FE101C03CE1D81A832FD816C8F69A835A
:101B20002B834C838D198983B8010E94FC0588237F
:101B3000C9F0B8016F5F7F4F8A810E94FC0588233E
:101B400089F0B8016E5F7F4F8B810E94FC0588236E
:101B500049F0B8016D5F7F4F8C810E94FC0591E0D8
:101B6000882309F490E0892F2496E7E00C9409710A
:101B7000EF92FF920F931F937B018C0126E93EE3C6
:101B80004CEE5FE30E94526C87FD54C0C801B70160
:101B900026E03FE241EB50E40E94526C87FD3EC0DC
:101BA000C801B70128E237EA43E151E40E94526CD0
:101BB00087FD36C0C801B7012EEC36EB4EE451E488
:101BC0000E94526C87FD2EC0C801B7012FE333EE8F
:101BD00044E851E40E94526C87FD26C0C801B70159
:101BE00022E13BE642EA51E40E94526C87FD1EC0AE
:101BF000C801B7012AEE32EF4FEB51E40E94526C5C
:101C000087FD16C0C801B7012DEB3AE74DED51E451
:101C10000E94526C87FF0EC088E00DC082E00BC0AE
:101C200083E009C084E007C085E005C086E003C00A
:101C300087E001C081E01F910F91FF90EF90089520
:101C4000A2E0B0E0E6E2FEE00C94F1708A83162F89
:101C5000BE016F5F7F4F0E94E6058981982F995FD3
:101C6000103428F48F5F891711F0110FF9CF898391
:101C70008981803210F0875089838981BE016E5F2F
:101C80007F4F0E94FC058A812296E3E00C940D713F
:101C9000A6E0B0E0EEE4FEE00C94EC70FC017B0109
:101CA000642F89018181982F93509D3068F1803194
:101CB00009F043C0C0808C2D853208F440C0403408
:101CC000E9F484E089831A821B8261E8C62E6BE006
:101CD000D62EC701BE016F5F7F4FF601099588239D
:101CE00061F583E08C831D821E82C701BE016C5F9B
:101CF0007F4FF6010995882329F521C08C2D0E947C
:101D0000200EC816D0F41BC08330C9F4C080FC2D4F
:101D1000F53298F0403461F48C831D821E82C70135
:101D2000BE016C5F7F4F0E94810B882331F007C09A
:101D30008C2D0E94200EC81610F481E001C082E0B4
:101D4000F80180832696E8E00C940871FF920F93C7
:101D50001F93F82E8B010E94A524882399F08F2DC4
:101D600090E0FC01EE0FFF1FE80FF91FE258F84F5B
:101D7000802F912FDC0183E00D9001928150E1F7DB
:101D800081E001C080E01F910F91FF900895FF92C4
:101D90000F931F93F82E8B010E948824882399F0BB
:101DA0008F2D90E0FC01EE0FFF1FE80FF91FEA56A0
:101DB000F84F802F912FDC0183E00D90019281502C
:101DC000E1F781E001C080E01F910F91FF9008953D
:101DD00020917D0730E0082E02C0359527950A94A2
:101DE000E2F720FF12C09091610021E030E002C0D4
:101DF000220F331F8A95E2F7922B90936100809116
:101E00006200822B8093620012C09091610021E0F9
:101E100030E002C0220F331F8A95E2F7922B909395
:101E2000610080916200209528232093620081E068
:101E3000089520917D0730E0082E02C03595279542
:101E40000A94E2F720FF13C09091610021E030E096
:101E500002C0220F331F8A95E2F7922B9093610004
:101E600080916200209528232093620011C09091F8
:101E7000610021E030E002C0220F331F8A95E2F7B3
:101E8000922B9093610080916200822B809362007C
:101E900081E00895882319F08130A1F40AC080916F
:101EA000B70780FF03C0A09AA8980895A09AA89A9F
:101EB00008958091B70781FF03C0A19AA99808955A
:101EC000A19AA99A0895882319F0A198A99808952C
:101ED000A098A8980895A4E0B0E0E1E7FFE00C9492
:101EE000F070AC018B01CE01019662E00E94AE075A
:101EF000000F111F49815A81400F511FCE010396D7
:101F000062E00E94AE078B819C812496E4E00C94F1
:101F10000C71A1E0B0E0EFE8FFE00C94F270AC01CE
:101F20004E5F5F4FCE01019661E00E94AE0789814E
:101F30002196E2E00C940E71809121038B7F8093B7
:101F400021030895EF92FF920F931F93CF93DF9396
:101F5000E091F502F091F602C081D1810281CE01BB
:101F60000E94890F182F11501230E8F4E091F50209
:101F7000F091F6020383CE0160E070E00E946B0FE7
:101F80009093FA028093F902112319F484E399E4FF
:101F900005C0CE0161E070E00E946B0F9093FC02DF
:101FA0008093FB0240C0CE0160E070E00E946B0FA6
:101FB0009093FA028093F902E091F502F091F60213
:101FC000E380F02E13C01F1510F4FF24F394CE010C
:101FD0006F2D70E00E946B0FEE2DF0E0EE0FFF1FF3
:101FE000E750FD4F91838083E394F3948E2D8230EC
:101FF00050F3E091F502F091F602F38010C0002357
:1020000009F4012FCE01602F70E00E946B0FEF2DBD
:10201000F0E0EE0FFF1FE750FD4F91838083FA94AD
:102020000150FF2061F7809121038160809321039B
:10203000CDB7DEB7E6E00C940A718091F50290917D
:10204000F60222E08134920749F009979093F60254
:102050008093F5020E94A20F10923A020895E09137
:10206000F502F091F602918380836283433010F48D
:10207000138202C081E0838344830E94A20F1092E6
:102080003A020895A091F502B091F602FD01399649
:10209000F093F602E093F5021A969C938E931997AB
:1020A0006283433010F4138202C081E0838344834F
:1020B0000E94A20F10923A02089580E980932203B1
:1020C000E5EFF2E0808191810997918380830E94FE
:1020D000A20F08951F93CF93DF93E091F502F09143
:1020E000F602808191810E94890F8150A091F502B2
:1020F000B091F60211E014969C911497933008F475
:1021000010E08230A8F413969C911397191760F48D
:1021100012968C911297815012968C93129791502F
:1021200013969C93139738C012968C93129717C0EE
:1021300012969C911297191728F4915012969C931D
:10214000129703C012968C93129713968C91139743
:10215000181720F0CBEFD2E021E00AC0815013968F
:102160008C93139719C09A918A919B838A832150EB
:102170001217C8F312966C9112978D919C9170E092
:102180000E946B0FE12FF0E0EE0FFF1FE65CFD4FAA
:10219000E154FF4F9183808380912103816080937C
:1021A0002103DF91CF911F910895E091F502F09105
:1021B000F602808191810E94890F8150E091F502A1
:1021C000F091F60291E02481233008F490E082300F
:1021D00060F42381281730F42F5F238382818F5F7F
:1021E000828325C09283938322C02281281718F40A
:1021F0002F5F228301C092838381882361F481E071
:10220000838315C08091FB029091FC029093FA02A7
:102210008093F90202C09923A9F3628180819181A0
:1022200070E00E946B0F9093FC028093FB02809100
:102230002103816080932103089591B5986191BD38
:1022400081BD81B5886081BD0895EAE8F0E0208114
:10225000287F2083208121602083909387008093B2
:1022600086001B98139AEBE8F0E0808180648083FD
:1022700080818F7780830895309136022091E30129
:10228000332349F021FF11C0109236020E9425111C
:10229000A59AAD9A089521FD08C081E08093360289
:1022A000CB010E942511A59AAD980895EBE8F0E0C6
:1022B00080818F7B808380818F778083EAE8F0E064
:1022C0008081887F8083808180830895109234028A
:1022D0001092360280E2809337020E94561180915C
:1022E000C107882319F0A59AAD9A0895A59AAD98CB
:1022F00008950E94661181E08093D3071092D4075D
:102300000895E82FF92F1BC0219198E0AA98A29A6E
:1023100000C000C020FF03C0A298AA9802C0AA98DB
:10232000A29A36E13A95F1F70000A298AA9832E015
:102330003A95F1F700C0915011F02695E7CF9E2F06
:10234000981B961708F30895AA98A29A8BEB91E030
:102350000197F1F70000A298AA9888EF90E0019702
:10236000F1F700C000009A9B07C082EC90E0019753
:10237000F1F7000081E0089580E00895A2E0B0E068
:10238000E4ECF1E10C94F170182F0E94A411882361
:1023900051F08CEC89831A83CE01019662E00E9491
:1023A000811181E001C080E02296E3E00C940D7180
:1023B000CF93DF93EC010E94A411882369F18EEB87
:1023C0000E94BE11882341F1FE0189E098E020813E
:1023D00026952083AA98A29A00C000C0A298AA9825
:1023E00000C000C09A9B03C020812068208326E1A2
:1023F0002A95F1F7000022E02A95F1F700C09150EC
:1024000031F781503196882309F7CE0168E00E94A8
:102410002C0691E02885821390E0892FDF91CF91DF
:102420000895ACE0B0E0E7E1F2E10C94F270A2981C
:10243000AA988EE40E94BE11882331F18DE789832A
:1024400089EC8A8380E68B83CE01019663E00E944B
:102450008111CE0104960E94D8118823A9F08E81A3
:102460008D3791F48F81893C79F488858076803628
:1024700059F488E40E94BE11882331F084E40E945C
:10248000BE1191E0882309F490E0892F2C96E2E0B8
:102490000C940E71A4E0B0E0E0E5F2E10C94F2706F
:1024A0000E94111210923803109237038091E201BA
:1024B00084FF14C085E08C8383E08A838BE192E003
:1024C00064E0AE014F5F5F4F0E947B3680E28093F5
:1024D0003A038091E2018B7F8093E2012496E2E04F
:1024E0000C940E7120B32095277082B3887F82BB35
:1024F00081B3876081BB81B3877081BB82B3886FF2
:1025000082BB85E08A95F1F780B392B3977092BB56
:1025100091B3986F91BB92B3976092BB91B3987F40
:1025200091BB222309F444C090E080959095887F68
:10253000907053E0959587955A95E1F7213061F4B5
:10254000813031F1823031F1843031F1883031F134
:10255000803171F58DE30895223061F4813001F10D
:10256000823001F1843001F1883001F1803101F5D0
:102570008EE208952430E1F48130E1F08230E1F020
:102580008430E1F08830E1F08031E1F480E30895B7
:1025900083E6089587E3089588E3089589E308951D
:1025A00082E6089584E3089585E3089586E3089517
:1025B00080E0089581E6089581E3089582E3089517
:1025C00083E3089580E008950F931F9306B601FEFC
:1025D0004DC08091C307882379F01092C30788B754
:1025E000816088BF88B7826088BF88B7846088BFF1
:1025F00088B7806188BF3AC008B600FC06C008B63C
:1026000001FC03C008B602FE19C00E947212082F16
:102610000E947212182F0E947212002331F01017BC
:1026200021F4181711F41093C20788B7816088BF8E
:1026300088B7826088BF88B7846008C008B604FE87
:1026400015C084E68093C20788B7806188BF12BE38
:102650008FEF81BF83B7887F83BF83B7876083BFD6
:1026600086B7826086BF81E08093C3071F910F9178
:102670000895C798BF9A82E08A95F1F700C0C6987E
:10268000BE9882E08A95F1F700C0C798BF988CE0A9
:102690008A95F1F700000895FC0188E09081990F78
:1026A000908392E09A95F1F700C0C698BE9899E1A0
:1026B000B69902C09150E1F792E09A95F1F700C007
:1026C000B79B03C0908191609083C698BE9A815059
:1026D00029F782E08A95F1F700C0662311F0C798C8
:1026E000BF9A92E09A95F1F700C0C698BE9889E12A
:1026F000B69902C08150E1F782E08A95F1F700C0F7
:10270000C698BE9A92E09A95F1F700C0C798BF9814
:102710000895A1E0B0E0EFE8F3E10C94F270BD9A07
:10272000C59A813029F4CE01019660E00E944C13D5
:102730000E9439132196E2E00C940E7198E022E099
:102740002A95F1F700C087FF03C0C798BF9802C061
:10275000C798BF9A22E02A95F1F700C0C698BE98A4
:1027600029E1B69902C02150E1F722E02A95F1F75C
:1027700000C0C698BE9A915011F0880FE0CF82E059
:102780008A95F1F700C0C798BF9822E02A95F1F723
:1027900000C0C698BE9889E1B69902C08150E1F7A1
:1027A00082E08A95F1F700C0B79904C0C698BE9A36
:1027B00081E0089580E0089592E09A95F1F700C0D5
:1027C000C698BE9899E1B69902C09150E1F792E09F
:1027D0009A95F1F700C0C798BF9A92E09A95F1F7E1
:1027E00000C0C698BE9A862B0E949E130895FF9241
:1027F0000F931F93CF93DF93082FEB01F42E12E07A
:1028000080EA60E00E94DC138823D9F0802F0E94C8
:102810009E138823B1F080EA61E00E94DC138823D4
:1028200081F009C08E010F5F1F4FFA94CE016F2D0A
:102830000E944C13E801FF20A9F70E94391380E0A1
:1028400005C01150E9F60E94391381E0CDB7DEB71B
:10285000E5E00C940B71A3E0B0E0E1E3F4E10C944B
:10286000ED70D62EE72EF42E4F5F8E010F5F1F4FB7
:10287000B8010E94F7138823C1F4C8016F2D0E948C
:102880002C06A8014F0D511DFA019081981779F47B
:10289000D8018D2D9E2D04C02D91FC012193CF01D7
:1028A000A417B507C9F780E003C081E001C082E04A
:1028B0002396E7E00C940971A1E0B0E0E2E6F4E1D0
:1028C0000C94E670B82EA62E972E742E62E0862EFB
:1028D0007E010894E11CF11C80EA60E00E94DC1398
:1028E0008823E1F18B2D0E949E138823B9F16A2C75
:1028F0000A2D192DCA2CD92C07C0F60181916F0120
:102900000E949E13882369F18C2D86198715A8F3E0
:102910000E94391380EA60E00E94DC13882309F1E9
:102920008B2D0E949E138823E1F080EA61E00E94D3
:10293000DC138823B1F0C72C0BC0CA94C7016C2DDF
:102940000E944C13F80181918F019981981711F41D
:10295000CC2099F70E943913CC2039F08A9409F0E1
:10296000BBCF0E94391381E001C080E02196EEE0E8
:102970000C940271A4E0B0E0E0ECF4E10C94F1708E
:10298000182FCB01262F392FD901FE0131969F0137
:10299000240F311D02C05D915193E217F307D9F75F
:1029A000642F4C830E942C06BE016F5F7F4F4C81C9
:1029B000FB01E40FF11D80834F5F812F0E945C14A7
:1029C00091E0882309F490E0892F2496E3E00C94A9
:1029D0000D71FF920F931F93CF93DF93082FEB019D
:1029E000142F0E942B1474E6F72EF00E882349F45E
:1029F0008F2DBE01412F0E942B14882389F08F2D2B
:102A000008C08F2DBE01412F0E942B14882351F442
:102A1000802FBE01412F0E94BA1491E0882319F43F
:102A200090E001C092E0892FCDB7DEB7E5E00C94CD
:102A30000B710F931F93CF93DF93082FEB01142F8C
:102A40000E94BA14882359F4802F8C59BE01412F5B
:102A50000E945C1491E0882319F490E001C091E099
:102A6000892FDF91CF911F910F910895A4E0B0E0DD
:102A7000ECE3F5E10C94EC708C0180E8898380E054
:102A8000BE016F5F7F4F41E00E945C14882309F014
:102A900055C0C8010E94FC0B90E080FD05C09F5FFF
:102AA000983021F08695F9CFC92E01C0CC24B2E030
:102AB000EB2EF12CEC0EFD1EF8018281B7010E9475
:102AC000E6058A8183708A838295880F880F807CCF
:102AD000F8019081892B8B83C294CC0CA0EECA2282
:102AE0008181C82ACC82E3E0CE2ED12CCC0EDD1E13
:102AF00085E0B60142E00E945C148823F9F4198253
:102B0000BE016F5F7F4F41E00E945C148823B1F4E7
:102B100081E1B70141E00E941915882379F4F80199
:102B200082818B8383818C8385E1B60142E00E94A0
:102B3000191591E0882319F490E001C091E0892FE4
:102B40002496E8E00C940871A5E0B0E0EAEAF5E12B
:102B50000C94EE708C0180E07E010894E11CF11C65
:102B6000B70141E00E94F7138823E9F4898187FFC8
:102B700008C0198280E0B70141E00E945C148823FC
:102B800091F481E0BE016E5F7F4F44E00E94F71335
:102B9000882349F48B81F80182838C8181838D8124
:102BA000808380E001C081E02596E6E00C940A7104
:102BB000A5E0B0E0EEEDF5E10C94EE708C0180E85C
:102BC000898380E07E010894E11CF11CB70141E09B
:102BD0000E945C148823D9F41A82F80182818B83C5
:102BE00081818C8380818D8381E0BE016E5F7F4F08
:102BF00044E00E945C14882351F41982B70141E03B
:102C00000E945C1491E0882319F490E001C091E0E7
:102C1000892F2596E6E00C940A71A2E0B0E0E3E18A
:102C2000F6E10C94EE7080E960E00E94DC138823EA
:102C300009F468C082E20E949E13882309F462C0EE
:102C40000E94391380E960E00E94DC13882309F4B4
:102C500059C08CEA0E949E13882309F453C08EE069
:102C60000E949E13882309F44DC00E94391308EE78
:102C70001DEF82E0E82EF12CEC0EFD1E80E960E0F5
:102C80000E94DC13882309F43DC08CEA0E949E1345
:102C90008823C1F180E961E00E94DC13882391F16F
:102CA000C70160E00E944C130E9439138A8184FDA1
:102CB0002EC00150104011F725C08CEA0E949E13CF
:102CC000882301F180E961E00E94DC138823D1F0C0
:102CD000CE01019660E00E944C130E943913898155
:102CE0008F708E3079F480E960E00E94DC138823D5
:102CF00049F081E50E949E13882321F00E94391338
:102D000081E001C080E02296E6E00C940A7180E93F
:102D100060E00E94DC138823A9F3CFCFA2E0B0E0EB
:102D2000E4E9F6E10C94EE708C0180E960E00E9429
:102D3000DC13882309F449C08CEA0E949E1388237F
:102D400009F443C080E961E00E94DC138823E9F1C3
:102D5000CE01029660E00E944C130E9439138A81D2
:102D60008F708E30B9F10E940D16882371F132C038
:102D70008AEA0E949E13882341F180E961E00E9463
:102D8000DC13882311F17E010894E11CF11CC701BA
:102D900061E00E944C138981F80110828183C70190
:102DA00060E00E944C130E943913898190E0F80181
:102DB00020813181822B932B24E0959587952A954C
:102DC000E1F79183808381E001C080E02296E6E014
:102DD0000C940A7180E960E00E94DC138823A9F357
:102DE000C7CFC798BF9800C000C0C698BE980E94C1
:102DF00039138DE38A95F1F700C008950E94F1160A
:102E00000E940D1691E0882309F490E0892F08951F
:102E1000A9E0B0E0EEE0F7E10C94F2708FEF91E101
:102E20000197F1F700C00000CE0103960E94A4159F
:102E3000882349F4CE0101960E948E16882319F446
:102E40000E94A00615C08091E20182FF11C082E0BD
:102E5000898784E08F838BE192E064E0AE014A5F72
:102E60005F4F0E947B368091E2018D7F8093E2016B
:102E70002996E2E00C940E710F931F93CF93DF938A
:102E8000162F20912D0330912E0340912F03509146
:102E90003003209331033093320340933303509334
:102EA0003403BD9AC59800E02AC0209131033091C7
:102EB00032034091330350913403213060E23607EE
:102EC00060E0460760E05607E8F4EC01219661E017
:102ED0000E944C138091310390913203A0913303EF
:102EE000B09134030196A11DB11D809331039093DD
:102EF0003203A0933303B09334030F5FCE01011765
:102F0000A0F2012FBD9AC59A8091310390913203AE
:102F1000A0913303B091340380932D0390932E033B
:102F2000A0932F03B0933003011721F00E940817DC
:102F300080E001C081E0DF91CF911F910F91089552
:102F4000DF92EF92FF920F931F93D82EE0902D0304
:102F5000F0902E0300912F0310913003E092310383
:102F6000F09232030093330310933403BD9AC59853
:102F700081E0E81680E2F80680E0080780E01807A4
:102F8000C8F482EA60E00E94DC13882399F08F2D58
:102F90000E949E13882371F08E2D0E949E13882319
:102FA00049F08D2D813089F482EA61E00E94DC13C2
:102FB000882359F4BD9AC59A0E94081780E01F9192
:102FC0000F91FF90EF90DF9008958091E20186606D
:102FD0008093E20181E0F3CFA9E0B0E0E2EFF7E116
:102FE0000C94E5705B016C01942E852E722E32E0FC
:102FF000632E522E53948E010F5F1F4F7801E20E05
:10300000F11CA0922D03B0922E03C0922F03D092F8
:10301000300381E00E94A0178823F1F0C801652DDC
:103020000E943C178823C1F081E00E948913C801E7
:10303000672D0E942C06F7019081891769F4F80129
:103040009401832F982DDC0102C081918D93EE15A0
:10305000FF05D9F781E003C06A9499F680E02996CC
:10306000EFE00C9401711F93CF93DF93182FEB01C6
:10307000682F70E080E090E02CE330E040E050E02A
:103080000E946E7066597E4F8F4F9F4FAE0123E0B6
:103090000E94EC17882329F4812F0E94460780E0C4
:1030A00001C081E0DF91CF911F9108951F93CF93CD
:1030B000DF93182FEB01682F70E080E090E02CE3A5
:1030C00030E040E050E00E946E706A597E4F8F4FB2
:1030D0009F4FAE0123E00E94EC17882329F4812F33
:1030E0000E94200780E001C081E0DF91CF911F9115
:1030F00008951F93CF93DF93182FEB01682F70E093
:1031000080E090E02CE330E040E050E00E946E7000
:10311000645C7E4F8F4F9F4FAE0124E00E94EC17FE
:10312000882329F4812F0E94E30680E001C081E01A
:10313000DF91CF911F9108951F93CF93DF93182FA5
:10314000EB01682F70E080E090E02CE330E040E09D
:1031500050E00E946E70685C7E4F8F4F9F4FAE01B3
:1031600023E00E94EC17882329F4812F0E94BD06DA
:1031700080E001C081E0DF91CF911F910895A7E029
:10318000B0E0E5ECF8E10C94EF70F82E8B01682FBD
:1031900070E080E090E02EE030E040E050E00E94FF
:1031A0006E706C547F4F8F4F9F4FA80123E00E9499
:1031B000EC17882389F5DE011196E3E0F1E083E066
:1031C00001900D928150E1F78F2D90E0FC01EE0F00
:1031D000FF1FE80FF91FEA56F84FDE01119683E052
:1031E0000D9001928150E1F78091E20182FF16C0BB
:1031F00083E18F83FC8284E08D838AE292E064E045
:10320000AE014C5F5F4F0E947B368F2DBE016F5F1A
:103210007F4F0E94882402C081E001C080E0279691
:10322000E5E00C940B71A7E0B0E0E9E1F9E10C9462
:10323000EF70F82E8B01682F70E080E090E02EE0B8
:1032400030E040E050E00E946E7060557F4F8F4F3D
:103250009F4FA80123E00E94EC17882361F582E1CB
:1032600089831A821B828F2D90E0FC01EE0FFF1FD5
:10327000E80FF91FE258F84FDE01119683E00D9038
:1032800001928150E1F78091E20182FF16C082E154
:103290008F83FC8281E08D838AE292E064E0AE015C
:1032A0004C5F5F4F0E947B368F2DBE016F5F7F4F5B
:1032B0000E94A52402C081E001C080E02796E5E0DD
:1032C0000C940B71A7E0B0E0E8E6F9E10C94EF7024
:1032D000F82E8B01682F70E080E090E026E130E06E
:1032E00040E050E00E946E70685F7F4F8F4F9F4FAD
:1032F000A80123E00E94EC178823E1F48091E20109
:1033000082FF1AC08CE08F83FC8283E08D8381E290
:1033100092E064E0AE014C5F5F4F0E947B36198201
:103320001A8280E18B838F2DBE016F5F7F4F0E94D9
:10333000032E02C081E001C080E02796E5E00C94F6
:103340000B71A7E0B0E0E7EAF9E10C94EF70F82E1A
:103350008B01682F70E080E090E026E130E040E0F3
:1033600050E00E946E706C5F7F4F8F4F9F4FA8019F
:1033700023E00E94EC178823E1F48091E20182FFB0
:103380001AC08BE08F83FC8282E08D8381E292E021
:1033900064E0AE014C5F5F4F0E947B3619821A8257
:1033A00088E08B838F2DBE016F5F7F4F0E94202EA0
:1033B00002C081E001C080E02796E5E00C940B712B
:1033C000A7E0B0E0E6EEF9E10C94EF70F82E8B0187
:1033D000682F70E080E090E026E130E040E050E0CF
:1033E0000E946E70A80123E00E94EC178823E1F48C
:1033F0008091E20182FF1AC08AE08F83FC8281E023
:103400008D8381E292E064E0AE014C5F5F4F0E94E9
:103410007B3682E189831A821B828F2DBE016F5F0A
:103420007F4F0E943D2E02C081E001C080E02796C0
:10343000E5E00C940B71A5E0B0E0E1E2FAE10C9458
:10344000F27085E090E0A0E0B0E080932D039093CF
:103450002E03A0932F03B093300381E00E94A017A6
:10346000882361F0CE01019665E00E943C17882315
:1034700029F081E00E94891381E001C080E0259657
:10348000E2E00C940E71A0E1B0E0E9E4FAE10C9402
:10349000E2706B877C878D879E874F87588BB22E13
:1034A000CA01622F0E942C068A8799248E010F5F21
:1034B0001F4F4B2C55241801240C351CAB2CA39406
:1034C00081E00E9489139F858889E92EF82E3801B2
:1034D000C2018E0D9F1DD801F70102C021912D93CD
:1034E000E817F907D9F7EA85D101EC938B859C851C
:1034F000AD85BE8580932D0390932E03A0932F035B
:10350000B093300380E00E94A017882309F493C091
:1035100080912D0390912E03A0912F03B091300341
:103520008093310390933203A0933303B093340319
:10353000BD9AC598680188242BC080913103909171
:103540003203A0913303B09134038130E0E29E074F
:10355000E0E0AE07E0E0BE07F0F4D6018D916D012A
:103560000E949E138823B9F0809131039091320319
:10357000A0913303B09134030196A11DB11D809336
:10358000310390933203A0933303B09334038394B5
:103590008A1498F28A2CBD9AC59A80913103909131
:1035A0003203A0913303B091340380932D039093A1
:1035B0002E03A0932F03B09330038A14D1F480918B
:1035C000E20186608093E20180E00E9489138B858E
:1035D0009C85AD85BE8580932D0390932E03A0938B
:1035E0002F03B093300381E00E94A017882319F1C4
:1035F00003C00E9408171FC0C8016A2D0E943C1713
:103600008823C9F080E009C0D3012D913D01F70165
:1036100091917F01291779F48F5F8B15A8F38B1592
:1036200051F4D1018C91BA858B1729F481E00E9465
:10363000891381E009C09394E92DE23009F040CF6D
:1036400081E00E94891380E06096E2E10C94FE70B4
:10365000A2E0B0E0EEE2FBE10C94F07089E09FEFB5
:103660009A83898367ED7FE180E090E08E010F5FB0
:103670001F4FA80122E00E94431A882341F06AEDFF
:103680007FE180E090E0A80122E00E94431A2296A8
:10369000E4E00C940C71A0E0B0E0E1E5FBE10C94F7
:1036A000EC70EB01682F70E080E090E02CE330E0FC
:1036B00040E050E00E946E707B018C0188E391E055
:1036C000A0E0B0E0E80EF91E0A1F1B1FC801B701F9
:1036D000AE0123E00E94431A882309F4ADC0C8015B
:1036E000B7016C5F7F4F8F4F9F4FAE014D5F5F4FB4
:1036F00024E00E94431A882309F49EC0C801B70140
:10370000675F7F4F8F4F9F4FAE01495F5F4F21E053
:103710000E94431A882309F48FC0C801B701655F6E
:103720007F4F8F4F9F4FE8E0CE2ED12CCC0EDD1E69
:10373000A60128E00E94431A882309F47DC0C8012D
:10374000B7016C5E7F4F8F4F9F4FA601485F5F4F61
:1037500028E00E94431A882309F46EC0C801B7010B
:10376000635E7F4F8F4F9F4FAE01485E5F4F28E0F3
:103770000E94431A882309F45FC0C801B7016A5D3B
:103780007F4F8F4F9F4FAE01405E5F4F27E00E94FB
:10379000431A882309F450C0C801B701625D7F4F06
:1037A0008F4F9F4FAE01485D5F4F23E00E94431A49
:1037B000882309F441C0C801B7016E5C7F4F8F4F69
:1037C0009F4FAE01455D5F4F23E00E94431A88235F
:1037D00099F186E390E0A0E0B0E0E80EF91E0A1F40
:1037E0001B1FAE01425D5F4FC801B70121E00E947F
:1037F000431A882309F182E090E0A0E0B0E0E80EEF
:10380000F91E0A1F1B1FAE01495D5F4FC801B701BA
:1038100021E00E94431A882379F0C801B7016E5F46
:103820007F4F8F4F9F4FAE01415D5F4F21E00E9460
:10383000431A91E0882309F490E0892FCDB7DEB7D1
:10384000E8E00C940871A1E0B0E0E9E2FCE10C943E
:10385000F2706983682F70E080E090E02CE330E044
:1038600040E050E00E946E706E587E4F8F4F9F4F29
:10387000AE014F5F5F4F21E00E94431A91E0882321
:1038800009F490E0892F2196E2E00C940E71A4E0F7
:10389000B0E0EDE4FCE10C94F170182F482F50E0FB
:1038A0002BE030E0429FF001439FF00D529FF00D5E
:1038B0001124E55CFC4F81E085838091E20182FF69
:1038C00011C083E28C83198388E08A8387E292E0C7
:1038D00064E0AE014F5F5F4F0E947B36812F61E055
:1038E0000E94231C2496E3E00C940D711F93CF9348
:1038F000DF93182FEB01682F70E080E090E02CE35D
:1039000030E040E050E00E946E706E587E4F8F4F66
:103910009F4FAE0121E00E94EC17882329F4812FEC
:103920000E94471C80E001C081E0DF91CF911F9190
:103930000895A1E0B0E0EFE9FCE10C94F270698336
:10394000682F70E080E090E02CE330E040E050E051
:103950000E946E7060597E4F8F4F9F4FAE014F5F38
:103960005F4F21E00E94431A91E0882309F490E020
:10397000892F2196E2E00C940E71A4E0B0E0E3EC14
:10398000FCE10C94F170182F482F50E02BE030E050
:10399000429FF001439FF00D529FF00D1124E55C12
:1039A000FC4F80818E7F80838091E20182FF11C075
:1039B0008FE18C83198387E08A8387E292E064E059
:1039C000AE014F5F5F4F0E947B36812F60E00E9407
:1039D000991C2496E3E00C940D711F93CF93DF9311
:1039E000182FEB01682F70E080E090E02CE330E0CE
:1039F00040E050E00E946E7060597E4F8F4F9F4FA5
:103A0000AE0121E00E94EC17882329F4812F0E9447
:103A1000BD1C80E001C081E0DF91CF911F9108952E
:103A2000A1E0B0E0E6E1FDE10C94F2706983682F5B
:103A300070E080E090E02CE330E040E050E00E9455
:103A40006E7062597E4F8F4F9F4FAE014F5F5F4F39
:103A500021E00E94431A91E0882309F490E0892F25
:103A60002196E2E00C940E71A4E0B0E0EAE3FDE1FF
:103A70000C94F170182F482F50E02BE030E0429F5B
:103A8000F001439FF00D529FF00D1124E55CFC4FB7
:103A900081E084838091E20182FF11C082E28C8305
:103AA000198385E08A8387E292E064E0AE014F5F8C
:103AB0005F4F0E947B36812F61E00E94101D24968B
:103AC000E3E00C940D711F93CF93DF93182FEB015C
:103AD000682F70E080E090E02CE330E040E050E0C0
:103AE0000E946E7062597E4F8F4F9F4FAE0121E052
:103AF0000E94EC17882329F4812F0E94341D80E056
:103B000001C081E0DF91CF911F910895A4E0B0E062
:103B1000ECE8FDE10C94ED70D82E282F30E08BE01E
:103B200090E0289F8001299F100D389F100D1124CF
:103B3000F801E55CFC4F808180FF3DC085E080831B
:103B4000B801615C7C4F8D2D0E94631DFCE3EF2E5C
:103B5000F3E0FF2EE00EF11E8D2DB7010E949C18A0
:103B6000B8016F5B7C4F8D2D0E946608882341F061
:103B70008CE192E0B7010E94810B8823E1F018C02C
:103B80008FE192E061E08E010F5F1F4FA8010E945C
:103B9000170D882381F08D2DB8010E9466088823B7
:103BA00051F08CE192E0B7010E94810B882319F457
:103BB0008D2D0E9413092496E7E00C940971CF9390
:103BC000DF93EB01682F70E080E090E02CE330E0C1
:103BD00040E050E00E946E7066597E4F8F4F9F4FBD
:103BE000AE0123E00E94431A91E0882309F490E09B
:103BF000892FDF91CF910895CF93DF93EB01682F49
:103C000070E080E090E02CE330E040E050E00E9483
:103C10006E706A597E4F8F4F9F4FAE0123E00E9416
:103C2000431A91E0882309F490E0892FDF91CF9126
:103C30000895EF92FF920F931F93CF93DF93EB01C1
:103C4000682F70E080E090E02CE330E040E050E04E
:103C50000E946E707B018C0183E491E0A0E0B0E0F3
:103C6000E80EF91E0A1F1B1FC801B701AE0128E0AC
:103C70000E94431A882359F1C801B701675F7F4F3B
:103C80008F4F9F4FAE01485F5F4F28E00E94431A5D
:103C90008823E9F0C801B7016E5E7F4F8F4F9F4FB9
:103CA000AE01405F5F4F28E00E94431A882379F0FD
:103CB000C801B701655E7F4F8F4F9F4FAE01485ED1
:103CC0005F4F27E00E94431A91E0882309F490E0B7
:103CD000892FCDB7DEB7E6E00C940A71A4E0B0E01E
:103CE000E4E7FEE10C94F170182F8091E20182FF6D
:103CF00012C08EE18C8319838EE08A8387E292E082
:103D000064E0AE014F5F5F4F0E947B36812F60E819
:103D100074E00E94191E2496E3E00C940D71A0E05B
:103D2000B0E0E5E9FEE10C94ED70D82EEB01682FD0
:103D300070E080E090E02CE330E040E050E00E9452
:103D40006E707B018C0183E491E0A0E0B0E0E80EAE
:103D5000F91E0A1F1B1FC801B701AE0128E00E940F
:103D6000EC17882351F1C801B701675F7F4F8F4F70
:103D70009F4FAE01485F5F4F28E00E94EC178823F9
:103D8000E1F0C801B7016E5E7F4F8F4F9F4FAE01CC
:103D9000405F5F4F28E00E94EC17882371F0C80154
:103DA000B701655E7F4F8F4F9F4FAE01485E5F4FFB
:103DB00027E00E94EC17882329F48D2D0E946E1EA7
:103DC00080E001C081E0CDB7DEB7E7E00C94097177
:103DD000A1E0B0E0EEEEFEE10C94F2706983682F92
:103DE00070E080E090E02CE330E040E050E00E94A2
:103DF0006E706F5B7E4F8F4F9F4FAE014F5F5F4F77
:103E000021E00E94431A91E0882309F490E0892F71
:103E10002196E2E00C940E71A4E0B0E0E2E1FFE153
:103E20000C94F170182F482F50E02BE030E0429FA7
:103E3000F001439FF00D529FF00D1124E55CFC4F03
:103E400082E082878091E20182FF11C08DE18C8344
:103E500019838DE08A8387E292E064E0AE014F5FD0
:103E60005F4F0E947B36812F62E00E94E81E2496FD
:103E7000E3E00C940D71AF92BF92DF92EF92FF924C
:103E80000F931F93CF93DF93D82EEB01682F70E031
:103E900080E090E02CE330E040E050E00E946E7063
:103EA0007B018C0188E391E0A0E0B0E0E80EF91E10
:103EB0000A1F1B1FC801B701AE0123E00E94EC17C7
:103EC000882321F48D2D0E94BD06C5C0C801B7010D
:103ED0006C5F7F4F8F4F9F4FAE014D5F5F4F24E070
:103EE0000E94EC17882321F48D2D0E94E306B3C0B5
:103EF000C801B701675F7F4F8F4F9F4FAE01495F8A
:103F00005F4F21E00E94EC17882321F48D2D0E9441
:103F10000C1FA1C0C801B701655F7F4F8F4F9F4F36
:103F2000A8E0AA2EB12CAC0EBD1EA50128E00E946F
:103F3000EC178823C9F1C801B7016C5E7F4F8F4F22
:103F40009F4FA501485F5F4F28E00E94EC17882330
:103F500059F1C801B701635E7F4F8F4F9F4FAE018C
:103F6000485E5F4F28E00E94EC178823E9F0C80103
:103F7000B7016A5D7F4F8F4F9F4FAE01405E5F4F2D
:103F800027E00E94EC17882379F0C801B701625D31
:103F90007F4F8F4F9F4FAE01485D5F4F23E00E94E0
:103FA000EC17882349F404C08D2D0E946E1E53C067
:103FB0008D2D0E9420074FC0C801B7016E5C7F4F56
:103FC0008F4F9F4FAE01455D5F4F23E00E94EC177E
:103FD000882321F48D2D0E9446073DC086E390E0A2
:103FE000A0E0B0E0E80EF91E0A1F1B1FAE01425D03
:103FF0005F4FC801B70121E00E94EC17882321F42C
:104000008D2D0E94341D27C082E090E0A0E0B0E03A
:10401000E80EF91E0A1F1B1FAE01495D5F4FC80164
:10402000B70121E00E94EC17882321F48D2D0E9416
:10403000BD1C11C0C801B7016E5F7F4F8F4F9F4FEE
:10404000AE01415D5F4F21E00E94EC17882329F407
:104050008D2D0E94471C80E001C081E0DF91CF914F
:104060001F910F91FF90EF90DF90BF90AF90089558
:104070001F93CF93DF93182FEB01682F70E080E040
:1040800090E02CE330E040E050E00E946E706F5B07
:104090007E4F8F4F9F4FAE0121E00E94EC17882387
:1040A00029F4812F0E940C1F80E001C081E0DF9184
:1040B000CF911F910895A3E2B0E0E1E6F0E20C9405
:1040C000EB70B82E0E946611EB2CFF248BE090E081
:1040D000E89E8001E99E100DF89E100D1124F80154
:1040E000E55CFC4F8081817E84608083B2E0CB2ED2
:1040F000D12CCC0EDD1E8B2DB6010E9456188823C4
:1041000009F45AC0B8016F5B7C4F8B2D0E9479185F
:10411000882309F451C08B2DB6010E9433188823DF
:1041200009F44AC0B801615C7C4F8B2D0E94631D6D
:10413000882309F441C0B8016B5B7C4F8B2D0E9432
:1041400038208823C9F1B801605C7C4F8B2D0E9418
:10415000761C882389F18B2DBE016B5F7F4F0E94F7
:104160008F1E882349F1B801645C7C4F8B2D0E941F
:104170009C18882309F18B2DBE016F5F7F4F0E9431
:10418000ED1C8823C9F08981882331F0F801E55CB2
:10419000FC4F808181600DC08BE090E0E89EF001D3
:1041A000E99EF00DF89EF00D1124E55CFC4F808136
:1041B0008E7F808381E001C080E0A396E9E00C94CB
:1041C0000771A4E0B0E0E7EEF0E20C94EF70F82E97
:1041D00090E02BE030E0829F8001839F100D929F42
:1041E000100D1124B801645C7C4F8CE192E0AE01AB
:1041F0004F5F5F4F0E94160B8823E1F089819A81FF
:10420000AB81BC8181309105A105B10539F4F8017C
:10421000E55CFC4F8081826080830FC00097A10520
:10422000B10569F0F801E55CFC4F908181E091FDFA
:1042300007C003C08F2D0E945B2080E001C081E099
:104240002496E5E00C940B71A7E0B0E0EAE2F1E21D
:104250000C94ED70D82E0E9466118D2D90E02BE00D
:1042600030E0829FF001839FF00D929FF00D1124AA
:10427000E55CFC4F2481222311F0215024832BE0A4
:1042800030E0829F7001839FF00C929FF00C11240C
:10429000F701E55CFC4F8481882311F18081817FE7
:1042A000806180838D2D8E010F5F1F4FB8010E94AA
:1042B00033188823A9F08CE192E0B801AE014C5F7D
:1042C0005F4F0E94500B882359F06C817D818E8155
:1042D0009F81A701445C5C4F0E94B90A882319F4AE
:1042E0008D2D0E945B202796E7E00C940971CF93F7
:1042F000DF93EB01682F70E080E090E02CE330E08A
:1043000040E050E00E946E70645C7E4F8F4F9F4F84
:10431000AE0124E00E94431A91E0882309F490E062
:10432000892FDF91CF910895CF93DF93EB01682F11
:1043300070E080E090E02CE330E040E050E00E944C
:104340006E70685C7E4F8F4F9F4FAE0123E00E94DE
:10435000431A91E0882309F490E0892FDF91CF91EF
:104360000895A1E0B0E0E7EBF1E20C94F27069830C
:10437000682F70E080E090E066567F4F8F4F9F4F30
:10438000660F771F881F991FAE014F5F5F4F21E0B7
:104390000E94431A91E0882309F490E0892F219626
:1043A000E2E00C940E71A1E0B0E0E9EDF1E20C94D2
:1043B000F2706983682F70E080E090E02AE030E0DE
:1043C00040E050E00E946E70685D7E4F8F4F9F4FBF
:1043D000AE014F5F5F4F21E00E94431A91E08823B6
:1043E00009F490E0892F2196E2E00C940E71A4E08C
:1043F000B0E0EDEFF1E20C94EF70F82E8B01682F36
:1044000070E080E090E02AE030E040E050E00E9480
:104410006E70685D7E4F8F4F9F4FA80121E00E9414
:10442000EC17882319F581E090E00F2C02C0880F6B
:10443000991F0A94E2F72091B707282B2093B7071A
:104440008091E20182FF14C08AE18C83F98289E0C5
:104450008A8380E392E064E0AE014F5F5F4F0E9489
:104460007B368F2D61E00E94D32102C081E001C024
:1044700080E02496E5E00C940B71A1E0B0E0E3E469
:10448000F2E20C94F2706983682F70E080E090E0B3
:104490002AE030E040E050E00E946E706A5D7E4F9E
:1044A0008F4F9F4FAE014F5F5F4F21E00E94431A35
:1044B00091E0882309F490E0892F2196E2E00C94A2
:1044C0000E711F93182F0E94630F21E030E0012E20
:1044D00002C0220F331F0A94E2F720958091B6079D
:1044E00028232093B607812F60E00E943D2291E0AF
:1044F000882309F490E0892F1F910895A4E0B0E08B
:10450000E4E8F2E20C94EF70F82E8B01682F70E073
:1045100080E090E02AE030E040E050E00E946E70E1
:104520006A5D7E4F8F4F9F4FA80121E00E94EC17DC
:10453000882321F581E090E00F2C02C0880F991F9D
:104540000A94E2F780959091B60789238093B60785
:104550008091E20182FF14C089E18C83F98287E0B7
:104560008A8380E392E064E0AE014F5F5F4F0E9478
:104570007B368F2D60E00E943D2202C081E001C0A9
:1045800080E02496E5E00C940B71A2E0B0E0EBEC47
:10459000F2E20C94F2707A836983682F70E080E015
:1045A00090E02AE030E040E050E00E946E706D5DE7
:1045B0007E4F8F4F9F4FAE014F5F5F4F22E00E94B3
:1045C000431A91E0882309F490E0892F2296E2E0D3
:1045D0000C940E71A4E0B0E0E0EFF2E20C94EF7006
:1045E000F82E8B01682F70E080E090E02AE030E048
:1045F00040E050E00E946E706D5D7E4F8F4F9F4F88
:10460000A80122E00E94EC17882309F5EF2DF0E0C5
:10461000EE0FFF1FE454F84F80E092E09183808317
:104620008091E20182FF15C088E18C83F9828BE0E2
:104630008A8380E392E064E0AE014F5F5F4F0E94A7
:104640007B368F2D60E072E00E94C52202C081E0BF
:1046500001C080E02496E5E00C940B71A2E0B0E08C
:10466000E4E3F3E20C94F2707A836983682F70E0DC
:1046700080E090E02AE030E040E050E00E946E7080
:10468000605E7E4F8F4F9F4FAE014F5F5F4F22E0C6
:104690000E94431A91E0882309F490E0892F229622
:1046A000E2E00C940E71A4E0B0E0E9E5F3E20C94D2
:1046B000EF70F82E8B01682F70E080E090E02AE028
:1046C00030E040E050E00E946E70605E7E4F8F4FA1
:1046D0009F4FA80122E00E94EC17882309F5EF2DD7
:1046E000F0E0EE0FFF1FE854F84F80EE91E0918369
:1046F00080838091E20182FF15C087E18C83F9827B
:104700008AE08A8380E392E064E0AE014F5F5F4F0E
:104710000E947B368F2D60EE71E00E942E2302C036
:1047200081E001C080E02496E5E00C940B71A1E0EB
:10473000B0E0EDE9F3E20C94F2706983682F70E069
:1047400080E090E02EE030E040E050E00E946E70AB
:1047500064547F4F8F4F9F4FAE014F5F5F4F21E0FB
:104760000E94431A91E0882309F490E0892F219652
:10477000E2E00C940E71A4E0B0E0E1ECF3E20C9402
:10478000EF70F82E8B01682F70E080E090E02EE053
:1047900030E040E050E00E946E7064547F4F8F4FD5
:1047A0009F4FA80121E00E94EC17882319F581E0B2
:1047B00090E00F2C02C0880F991F0A94E2F7209115
:1047C0007D07282B20937D078091E20182FF14C092
:1047D00086E18C83F98289E08A838AE292E064E050
:1047E000AE014F5F5F4F0E947B368F2D61E00E94CC
:1047F000972302C081E001C080E02496E5E00C949C
:104800000B71A1E0B0E0E7E0F4E20C94F270698390
:10481000682F70E080E090E02EE030E040E050E073
:104820000E946E7066547F4F8F4F9F4FAE014F5F57
:104830005F4F21E00E94431A91E0882309F490E041
:10484000892F2196E2E00C940E71A1E0B0E0EBE23A
:10485000F4E20C94F2706983682F70E080E090E0DD
:104860002EE030E040E050E00E946E7068547F4FD0
:104870008F4F9F4FAE014F5F5F4F21E00E94431A61
:1048800091E0882309F490E0892F2196E2E00C94CE
:104890000E71A4E0B0E0EFE4F4E20C94EF70F82EB7
:1048A0008B01682F70E080E090E02EE030E040E087
:1048B00050E00E946E7068547F4F8F4F9F4FA80149
:1048C00021E00E94EC178823E1F4EF2DF0E0E4589A
:1048D000F84F8FE782AB8091E20182FF14C084E140
:1048E0008C83F98286E08A838AE292E064E0AE01FA
:1048F0004F5F5F4F0E947B368F2D6FE70E9425240C
:1049000002C081E001C080E02496E5E00C940B71C8
:10491000CF93DF93EB01682F70E080E090E02EE012
:1049200030E040E050E00E946E706C547F4F8F4F3B
:104930009F4FAE0123E00E94431A91E0882309F4BF
:1049400090E0892FDF91CF910895CF93DF93EB0112
:10495000682F70E080E090E02EE030E040E050E032
:104960000E946E7060557F4F8F4F9F4FAE0123E0C6
:104970000E94431A91E0882309F490E0892FDF9187
:10498000CF910895A1E0B0E0E8ECF4E20C94ED7072
:10499000D62E682F70E080E090E026E130E040E025
:1049A00050E00E946E707B018C0184E190E0A0E0F9
:1049B000B0E0E80EF91E0A1F1B1FC801B701AE01C7
:1049C0004F5F5F4F21E00E94EC17882391F08981AF
:1049D000DD2011F0826001C08D7F8983C801B7019D
:1049E000AE014F5F5F4F21E00E94431A91E08823A0
:1049F00009F490E0892F2196E7E00C940971A1E079
:104A0000B0E0E5E0F5E20C94ED70D62E682F70E092
:104A100080E090E026E130E040E050E00E946E70DF
:104A20007B018C0184E190E0A0E0B0E0E80EF91E8B
:104A30000A1F1B1FC801B701AE014F5F5F4F21E086
:104A40000E94EC17882391F08981DD2011F08160AC
:104A500001C08E7F8983C801B701AE014F5F5F4FF0
:104A600021E00E94431A91E0882309F490E0892F05
:104A70002196E7E00C940971A4E0B0E0E2E4F5E2ED
:104A80000C94ED70D82E21E030E002C0220F331FCD
:104A90008A95E2F720958091EA0182238093EA01CA
:104AA0008091EB0182238093EB018091E20182FFF0
:104AB00025C081E18C83D9828FE08A835BE7E52E74
:104AC00056E3F52E81E292E064E08E010F5F1F4F06
:104AD000A801F70109958D2D60E00E94FF2482E175
:104AE0008C83D98280E18A8381E292E064E0A8012C
:104AF000F70109958D2D60E00E94FF242496E7E0E0
:104B00000C940971A1E0B0E0E8E8F5E20C94EF70D4
:104B1000F82E8B01682F70E080E090E026E130E015
:104B200040E050E00E946E706C5E7F4F8F4F9F4F51
:104B3000AE014F5F5F4F21E00E94EC17882329F4FC
:104B40008F2D0E943C2580E00AC0898181FF04C02E
:104B500081E0F801808303C0F801108281E0219692
:104B6000E5E00C940B71A1E0B0E0E9EBF5E20C9408
:104B7000EF70F82E8B01682F70E080E090E026E166
:104B800030E040E050E00E946E706C5E7F4F8F4FCF
:104B90009F4FAE014F5F5F4F21E00E94EC178823CB
:104BA00029F48F2D0E943C2580E00AC0898180FF76
:104BB00004C081E0F801808303C0F801108281E025
:104BC0002196E5E00C940B71A1E0B0E0EAEEF5E28D
:104BD0000C94F2706983682F70E080E090E026E129
:104BE00030E040E050E00E946E706E5E7F4F8F4F6D
:104BF0009F4FAE014F5F5F4F21E00E94431A91E04B
:104C0000882309F490E0892F2196E2E00C940E713C
:104C1000A4E0B0E0EEE0F6E20C94EF70F82E8B0129
:104C2000682F70E080E090E026E130E040E050E066
:104C30000E946E706E5E7F4F8F4F9F4FA80121E0E4
:104C40000E94EC178823D9F4EF2DF0E0EB51FE4FD2
:104C500017A28091E20182FF14C080E18C83F98267
:104C600088E08A8381E292E064E0AE014F5F5F4FAB
:104C70000E947B368F2D60E00E94E42502C081E017
:104C800001C080E02496E5E00C940B71A1E0B0E057
:104C9000ECE4F6E20C94F2706983682F70E080E037
:104CA00090E026E130E040E050E00E946E70605FEE
:104CB0007F4F8F4F9F4FAE014F5F5F4F21E00E94AC
:104CC000431A91E0882309F490E0892F2196E2E0CD
:104CD0000C940E71A1E0B0E0E0E7F6E20C94F27003
:104CE00089830E94661121E030E08981082E02C08C
:104CF000220F331F0A94E2F720959091E5012923B2
:104D00002093E50160E00E94462691E0882309F4A3
:104D100090E0892F2196E2E00C940E71A1E0B0E0C2
:104D2000E4E9F6E20C94F2706983682F70E080E0A9
:104D300090E026E130E040E050E00E946E70625F5B
:104D40007F4F8F4F9F4FAE014F5F5F4F21E00E941B
:104D5000431A91E0882309F490E0892F2196E2E03C
:104D60000C940E71A4E0B0E0E8EBF6E20C94EF7066
:104D7000F82E8B01682F70E080E090E026E130E0B3
:104D800040E050E00E946E70625F7F4F8F4F9F4FF8
:104D9000A80121E00E94EC178823E1F4EF2DF0E058
:104DA000EB51FE4F8FE787A78091E20182FF14C08D
:104DB0008EE08C83F98286E08A8381E292E064E06F
:104DC000AE014F5F5F4F0E947B368F2D6FE70E94D1
:104DD0008E2602C081E001C080E02496E5E00C94BC
:104DE0000B71A1E0B0E0E7EFF6E20C94F27069839A
:104DF000682F70E080E090E026E130E040E050E095
:104E00000E946E70645F7F4F8F4F9F4FAE014F5F68
:104E10005F4F21E00E94431A91E0882309F490E05B
:104E2000892F2196E2E00C940E71A4E0B0E0EBE152
:104E3000F7E20C94EF70F82E8B01682F70E080E0A1
:104E400090E026E130E040E050E00E946E70645F48
:104E50007F4F8F4F9F4FA80121E00E94EC178823BE
:104E6000E1F4EF2DF0E0EB51FE4F81E0878F809170
:104E7000E20182FF14C08DE08C83F98285E08A8391
:104E800081E292E064E0AE014F5F5F4F0E947B36AB
:104E90008F2D61E00E94F12602C081E001C080E018
:104EA0002496E5E00C940B71A5E0B0E0EAE5F7E2AA
:104EB0000C94ED70F82E0E94661181E090E00F2CAA
:104EC00002C0880F991F0A94E2F7E82EE09420911F
:104ED000E6012E212093E601D82E8091E7018D294D
:104EE0008093E7018091E8018E218093E801809111
:104EF000E9018E218093E9018E010D5F1F4F8F2DF7
:104F0000B8010E94A119882309F455C08F2DB8015A
:104F10000E946219882309F44EC00F2D10E0B801D9
:104F20006C5F7D4F8F2D0E941527882309F443C0A5
:104F3000B8016C5E7D4F8F2D0E94B2268823D9F177
:104F4000B801645F7D4F8F2D0E940826882399F158
:104F50008F2DBE016F5F7F4F0E94B325882359F1CB
:104F600099818091EA01992311F08D2901C08E2148
:104F70008093EA018F2DBE016E5F7F4F0E948225D4
:104F80008823C9F09A818091EB01992321F08D2922
:104F90008093EB0103C0E822E092EB01B801660FB9
:104FA000771F600F711F64517E4F8F2D0E94E01993
:104FB00091E0882309F490E0892F2596E7E00C948E
:104FC0000971A4E0B0E0E7EEF7E20C94F170182F5D
:104FD00090E0BC01660F771F680F791F64517E4F08
:104FE0008CE192E0AE014F5F5F4F0E94160B882369
:104FF000B9F129813A814B815C812130310541052C
:10500000510571F481E090E0012E02C0880F991FD4
:105010000A94E2F72091E601282B2093E60123C0B1
:10502000211531054105510559F08091E60190E0C7
:10503000012E02C0959587950A94E2F780FF13C070
:1050400081E090E0012E02C0880F991F0A94E2F7D8
:1050500080959091E60189238093E60181E004C068
:10506000812F0E94542780E02496E3E00C940D7178
:105070001F93182F2091EB0130E0082E02C03595C8
:1050800027950A94E2F720FF04C00E946A2688232D
:1050900021F0812F0E94542701C080E01F910895C4
:1050A000AF92BF92DF92EF92FF920F931F93DF9325
:1050B000CF9300D0CDB7DEB78091D807882309F011
:1050C0008CC0EBE3F3E040E0FF249E012F5F3F4FF5
:1050D000808190E080FF21C082FD1FC088719070A8
:1050E0000097D9F01F2D123098F0A091E501B0E0A3
:1050F000E091E701AE2EBB246091E80170E04091A1
:10510000E90150E080E090E09E012F5F3F4F0AC030
:10511000D901AF0DB11D4C93F3944F5F3B964336CD
:10512000B9F6E3CFE82E8D01082E02C0159507953C
:105130000A94E2F700FF26C08501082E02C01595EB
:1051400007950A94E2F700FD1DC08B01082E02C0EE
:10515000159507950A94E2F700FD09C08A01082E0B
:1051600002C0159507950A94E2F700FF0BC0EF2DDA
:10517000E23000F589010F0D111DF0E8EF2AF8016A
:10518000E082F39401968830910561F6FF2029F1C1
:10519000FF2DF13079F4898187FF04C08F770E9459
:1051A000382802C00E945B20809121038160809397
:1051B000210313C0E091F502F091F602399689813E
:1051C00085838A818683178281E08093D80782E174
:1051D00092E061E043E00E9442100F900F90CF9167
:1051E000DF911F910F91FF90EF90DF90BF90AF90F4
:1051F0000895A7E0B0E0EFEFF8E20C94EF70F82E1E
:105200000E9466118F2D90E0FC01EB51FE4F278D1F
:10521000222311F02150278F8B519E4FFC01878D47
:10522000882321F48F2D0E94382845C081E090E02A
:105230000F2C02C0880F991F0A94E2F7382F30957F
:105240002091E60123232093E6012091E701232307
:105250002093E7012091E80123232093E801209186
:10526000E901282B2093E9018F2D8E010F5F1F4F3D
:10527000B8010E9462198823D9F08CE192E0B8014C
:10528000AE014C5F5F4F0E94500B882389F06C8108
:105290007D818E819F812F2D30E0A901440F551F04
:1052A000420F531F44515E4F0E94B90A882319F4DC
:1052B0008F2D0E9454272796E5E00C940B71809166
:1052C00034028823A1F080913802813029F4809142
:1052D00039020E94F92806C0843021F480913902F5
:1052E0000E942421809121038160809321030895ED
:1052F000E091F502F091F60223819091F7022917CF
:1053000009F0DCC090913A02992309F4D7C02091AA
:10531000210321FD11C09D3319F0953309F0D0C050
:105320008091210310921D0310923A0283608093B2
:10533000210310922003C2C020912003291729F0D5
:105340009093200310921E0305C020911E032F5F2F
:1053500020931E03923679F480911D03882331F443
:10536000809121038D7F8093210303C0815080931E
:105370001D0380E24FC09D33B9F4E0911D03EE237D
:1053800009F49AC0809121038D7F809321031092AC
:105390003A02F0E0E350FD4F1082809121038160DA
:1053A0008093210381E00895292F20532230D0F5E6
:1053B000A0911E03AA23F1F06A2F70E0492F50E05C
:1053C0004F705070E7EFFFEF4E9F90014F9F300DF1
:1053D0005E9F300D1124205F3F4F261737070CF4D6
:1053E00050C02A2F215E9F703AE1939F902D112487
:1053F000290F56C090911D03981718F49F5F909342
:105400001D03E0911D03F0E0E450FD4F80913A024E
:10541000808386E8809323038091210381608093B9
:1054200021034AC09E3279F480911F038F3D11F40D
:1054300080E406C0803611F49FE501C090E2890F38
:1054400080931F0339C0292F2253283060F5209103
:105450001F03213618F4993331F407C02F3B40F471
:1054600021E420931F0323E001C025E033E002C0C4
:1054700024E034E040911E03442309F4BBCF2417F9
:1054800018F410921E03BDCF20911F03240F892F03
:1054900090E08F7090700297389F802D1124280F14
:1054A00020933A02AECF913619F40E946C0704C0E3
:1054B000943611F40E945F2910923A0280E0089518
:1054C00080E008952091210390913A0221FD0FC0C0
:1054D0009D3319F0953309F07BC080912103109220
:1054E0001D0310923A028360809321036FC09236AD
:1054F00079F480911D03882321F42D7F20932103CB
:1055000003C0815080931D0380E2809323033CC03D
:105510009D33A9F4E0911D03EE2309F455C02D7FBE
:105520002093210310923A02F0E0E350FD4F1082E5
:105530008091210381608093210381E008959E3250
:1055400049F590911D03992351F48DE28093FD025A
:1055500081E080931D0321602093210335C09817BB
:1055600098F5EDEFF2E080E004C021912E3261F178
:105570008F5F8917D0F3E92FF0E0E350FD4F8EE203
:1055800080839F5F90931D038091210381608093AE
:1055900021031AC0292F20532A3068F420911D03BB
:1055A000281790F4E22FF0E0E350FD4F90832F5F37
:1055B00020931D03E9CF913619F40E946C0704C0B3
:1055C000943611F40E945F2910923A0280E0089507
:1055D00080E00895A8E0B0E0E0EFFAE20C94E47017
:1055E0004C012A013B01580169018E2DE091F50221
:1055F000F091F60223819091F702291709F041C03A
:1056000090913A029923E9F10E94622A8823C9F114
:105610008DEF92E0B4010E943E05882331F480E2D0
:1056200095E065E040E050E02AC0F401E080F180C0
:1056300002811381C601B501A80197010E94526C35
:1056400087FF0BC0A982BA82CB82DC8289E295E017
:1056500065E0AE014F5F5F4F12C0C801B701A30103
:1056600092010E94526C87FF0EC04D825E826F8253
:1056700078868CE295E065E0AE014B5F5F4F0E945B
:105680007B3680E001C081E02896E0E10C94007157
:105690004F925F926F927F928F929F92AF92BF9242
:1056A000CF92DF92EF920F931F93DF93CF93CDB7FB
:1056B000DEB72897DEBFCDBF6C012A013B01480150
:1056C00059018E2DE091F502F091F602238190911F
:1056D000F702291709F05CC090913A02992309F466
:1056E00057C09E3209F454C00E94622A882309F4EC
:1056F0004FC0F60110821182128213820DEF12E068
:1057000020C08F708A3010F5F6016081718182812E
:1057100093812AE030E040E050E00E946E70F60194
:105720006083718382839383F80121918F012F70AD
:10573000620F711D811D911DF6016083718382834B
:105740009383F80180818823E1F638C080E295E0F8
:1057500065E040E050E01AC089829A82AB82BC8248
:1057600083E295E065E0AE014F5F5F4F0FC08415A7
:105770009505A605B70570F44D825E826F82788626
:1057800086E295E065E0AE014B5F5F4F0E947B369D
:1057900080E001C081E02896DEBFCDBFCF91DF91D0
:1057A0001F910F91EF90DF90CF90BF90AF909F909F
:1057B0008F907F906F905F904F900895F601808159
:1057C0009181A281B38188169906AA06BB0678F654
:1057D000C3CFA1E0B0E0EFEEFBE20C94F170182F24
:1057E000E091F502F091F60223818091F7022817EB
:1057F00009F04FC080913A02882309F44AC086E03C
:1058000099830E94622A9981882309F442C0EDEFAE
:10581000F2E080E02191222369F420E306C0E82F22
:10582000F0E0E350FD4F20838F5F8630C0F310928D
:10583000030303C08F5F863069F7E12FF92F909142
:10584000FD029295907F90838091FE028F70892B4C
:1058500080839091FF029295907F918380910003C5
:105860008F70892B8183909101039295907F928311
:10587000809102038F70892B8283CF010E941A0AC4
:10588000882349F480E295E065E040E050E00E9422
:105890007B3680E001C081E02196E3E00C940D713D
:1058A000E091F502F091F60293818091F70298174A
:1058B00071F580913A02882351F18833C1F0893320
:1058C00038F4823389F08533A9F08E32F1F41BC0AD
:1058D000823681F0833628F48D3361F08136A9F465
:1058E0000CC0843691F40CC00E946A100EC00E9455
:1058F000D5100BC00E945D1008C00E946C0705C047
:105900000E945F2902C00E94502810923A02089516
:10591000A3E0B0E0EEE8FCE20C94F070E091F50258
:10592000F091F60285818E010F5F1F4FB8010E9432
:10593000E0198EE892E0B8010E94B753E091F502B9
:10594000F091F6029091F7028381981749F48091C3
:105950003A028D3311F0853319F485810E9438287D
:1059600080913A028D3321F0853311F0823639F47B
:10597000E091F502F091F60285810E9438280E949C
:10598000502C2396E4E00C940C71E091F502F09118
:10599000F60293818091F7029817E1F580913A021F
:1059A0008823C1F1813661F1823638F4823361F0A7
:1059B000883369F08E3261F529C0833689F08336E9
:1059C00048F0843629F51FC00E946A1021C00E9449
:1059D000D5101EC03997F093F602E093F5020DC082
:1059E00081E492E09093F6028093F50281E0809347
:1059F000450210924302109244020E94A20F08C076
:105A00000E946C0705C00E945F2902C00E945028B6
:105A100010923A020895E091F502F091F602338176
:105A20002091F702321771F420913A02222351F0AB
:105A30002D3311F0253321F443E00E9442100895E4
:105A40000E94C52C0895A6E1B0E0E9E2FDE20C94C5
:105A5000E670F82EC82EDD248091E50190E00F2C31
:105A600002C0959587950A94E2F780FFB1C081E066
:105A700090E00F2C02C0880F991F0A94E2F7282F9C
:105A800020953091E60132233093E6013091E70111
:105A9000382B3093E7018091E80182238093E8015D
:105AA0008091E90182238093E901B6016C5F7D4F0B
:105AB0008F2D0E9415278601000F111F0C0D1D1D33
:105AC00004511E4F8F2DB8010E94E01985EE91E020
:105AD000C80ED91EF60187A590912302892309F4E7
