:100000000C9496040C94B5040C94B5040C94B504AB
:100010000C94B5040C94B5040C94B5040C94B5047C
:100020000C94B5040C94B5040C94B5040C94B5046C
:100030000C94B5040C94B5040C94B5040C94B5045C
:100040000C94B5040C94B5040C94B5040C94B5044C
:100050000C94B5040C94B5040C94B5040C94B5043C
:100060000C94B5040C94B5040C94B5040C94B5042C
:100070000C94B5040C94B5040C94B5040C94B5041C
:100080000C94B5040C94B5040C94B504BF69C8690C
:10009000D169066A3D6A806A856A8C6AA56AB96A0E
:1000A000D66AA969E269FC69E569E869EB69EE6904
:1000B000F169F469166A306A196A1C6A1F6A226A51
:1000C000256A286A4E6A706A526A566A5A6A5E6A75
:1000D000626A666AFE6AEF6AFE6AF56AFE6AF86A32
:1000E000FE6AFB6AFE6AA26AFE6AF26AFE6AE66A53
:1000F000E96AEC6AEF6AF26AF56AD36AF86AA26A98
:10010000FB6AFE6A05A84CCDB2D44EB93836A902B6
:100110000C50B9918688083CA6AAAA2ABE00000005
:10012000803F0664EC1B3C04BC163E3BE5B93CC971
:100130003C37C29E5A3D660498083EEA69AAAA3E28
:10014000000000803F07634236B79BD8A71A396882
:100150005618AEBAAB558C1D3CB7CC5763BD6DED90
:10016000FD753EF6177231BF000000803F080000A9
:1001700000BE922449123EABAAAA2ABECDCCCC4CDA
:100180003E00000080BEABAAAAAA3E00000000BF4D
:10019000000000803F0000000000084178D3BB430E
:1001A00087D1133D190E3CC3BD4282AD2B3E68EC96
:1001B0008276BED98FE1A93E4C80EFFFBE01C4FF1D
:1001C0007F3F00000000002307022707022B0702E1
:1001D0002F070233070237070745070249070A5D61
:1001E00007096F070273070277070683070287076D
:1001F0000591070295070299070AAD0704B507099B
:10020000C70703CD0702D10702D50702D90704E1CA
:100210000702E50702E90702ED0702F10703F70706
:1002200002FB07030108020508030B08031108027B
:100230001508031B0802BD65BE7061B32E00B3B381
:100240006FE300B7BD61C065BDB865003C3D003ED1
:100250003D00B279E3B8BBC4BDB8BAB800B3C3209F
:10026000BF6FC0BD6F00B32063B36F65BC2079BCA6
:10027000653F00B3B365E3B8BF6500A000A0E3002D
:10028000B3BABB2E00B3BABBC6C0B8BF6500B7B324
:100290006FBD3A00542EB300542E6F00542E7000E0
:1002A000542EBE00B3636500BEBD00B3BF006370D3
:1002B00000C0BF00BEBF0063B200B36300B863BE3E
:1002C0002EBE61706FBBC400E3BDB820BD65E365A1
:1002D000BBB800E3BDB83A00E361BF2EBF65BCBE4A
:1002E0002E00B8BDB365702E00B863BE2EE361BFAB
:1002F0002E00B8BDE42E206F20E3BD6500BA61BBBF
:10030000C4BA2E00BA6FBDB32E20BF65BCBE2E008E
:10031000BC65BDC600BC65BB6FE3B8C700BC65BBB0
:100320003A00BC6563C7E500BD61BE6FBCB8BD6186
:10033000BBBAB800BD61BE6FBC2E00BD6FB32EBE90
:1003400061702E00BD6520BC6FB6BD6F006FBFBA77
:10035000006FB2E6B865006FB2BC65BD20BD61003C
:10036000BE61706FBBC400BE6FE363B365BFBA61AB
:1003700000BE6F79BC6FBBC061BDB8C600BE6FE385
:100380006FB6E3B8BF652E2E2E00BE706FB4B800F6
:1003900061B3BF6FBE65702EB3702E00BE70B8B271
:1003A0006F7020B761BE79E665BD00B3BE6570B3FE
:1003B000C3653F00636F6FB2E62E006FE3B8BD20E8
:1003C0007061B700BF61B9BC657061005400BF6562
:1003D00070BC6F63BF61BF0079BF65702E002D2DAB
:1003E0002D00B37065BCC72FE361BF6100E4B8BBEB
:1003F000C4BF703A00B46FE300C061632063B8B457
:10040000BD2E00542EBE7000542E6FB200236572B4
:10041000726F7200BD65206FBFB32E004D454D0059
:100420004949430074BD203C2074B300BD6FB361E3
:10043000C720BB79BD6100A7E03A00AA3A004C3A58
:1004400000313233343536373800303132333435D9
:10045000363738390031320054BC0048BE3A0054B7
:100460007000A84154A54D4100762E302E332E3118
:10047000004E20BE6FB30054BD0054B300204300B3
:1004800030359600256D2025332E316620256D00F0
:10049000256320256D00256D2575202554202563B5
:1004A00000254420256D005425752025332E316606
:1004B0002D25332E316620256300256D2025730000
:1004C0002523255400252374313A25332E31662007
:1004D00074323A25332E3166002563253275257333
:1004E000002532752B202573002523254420256DFA
:1004F00000256320256D20257500256D25332E32BE
:100500006620256D256600256D25332E3266202553
:100510006D257520256D0025753A256D001F080293
:100520002308022708022B08022F0802330802378B
:1005300008023B08023F08024308024708024B0832
:10054000024F0802530802256D00256D20256D001D
:1005500025730032303132323031320025730025BC
:100560006D20256600256D20256C6400256D2025F5
:100570006C7500256D20256D00256D2025750025E5
:100580006D00256D20255400257300256D20255410
:1005900000257300254400256D0041A042A1E045DF
:1005A000A3A4A5A64BA74D484FA8504354A9AA58A9
:1005B000E1ABACE2ADAE62AFB0B161B2B3B4E36592
:1005C000B6B7B8B9BABBBCBD6FBE7063BF79E478CB
:1005D000E5C0C1E6C2C3C4C5C6C71F0E0400000003
:1005E00000003F00000000003F000006090906006F
:1005F0000000000001021408000000040E0E0E1F8F
:100600000400000E1F1F1F0E0000000E1111110E1E
:100610000000000704041C0C04002566202573005C
:10062000005EBCE2613FDD83C29C7E20A3FD1F41D2
:100630009DC3217FFCA2401E5F01E3BD3E6082DCC2
:10064000237D9FC1421CFEA0E1BF5D0380DE3C62B2
:10065000BEE0025CDF81633D7C22C09E1D43A1FFA2
:100660004618FAA427799BC584DA3866E5BB590792
:10067000DB856739BAE406581947A5FB7826C49A82
:10068000653BD987045AB8E6A7F91B45C6987A2472
:10069000F8A6441A99C7257B3A6486D85B05E7B962
:1006A0008CD2306EEDB3510F4E10F2AC2F7193CD52
:1006B000114FADF3702ECC92D38D6F31B2EC0E5042
:1006C000AFF1134DCE90722C6D33D18F0C52B0EE32
:1006D000326C8ED0530DEFB1F0AE4C1291CF2D7322
:1006E000CA947628ABF517490856B4EA6937D58B12
:1006F0005709EBB536688AD495CB2977F4AA481602
:10070000E9B7550B88D6346A2B7597C94A14F6A8F1
:10071000742AC896154BA9F7B6E80A54D7896B35E1
:10072000256600C458DA5FDD5707353649AB2E34ED
:1007300046CC5C2D46B73431492249E4481349047C
:1007400049DA48D048CB48805796474B52F543FE8C
:1007500045B2436F433647564BFF51B351C64853DA
:1007600051184E124E0C4E064E004EFA4DF44DC12D
:1007700048BA4CBC4832572947A5503143F3422F61
:100780004B4B50B748AA561C47AB4FFE55525551DC
:100790004FB248024CAD4836340F47E64E80425DBA
:1007A000416845855ABE453D42FA41AE46A848B427
:1007B0004CAE4CA84CA3489948BB4E8C4E8F485128
:1007C0004E75481E4E58485348DC5265533F4813F7
:1007D0005F2646755D3A48F35435482B4821481743
:1007E00048B6545C54E153C63303484D5FFE475E40
:1007F00046E947D1475E46A1468F2CA1464F455E4C
:1008000046FF4B1E5B94464F455E4687464F455E0E
:1008100046E447DD477A464F455E46D8476B46017A
:100820004A4049CC47C547C047FB44C047CA44C0BB
:10083000479944C0476844753D3D3D383D2D3DD9FD
:100840005253537D357F405B40EF3FCB3F2C3F08F9
:100850003F6F3E4B3EB13D626C696E6B2031006272
:100860006C696E6B203200626F6D62006368616F4D
:1008700073006D617263680073696C656E63650017
:10088000656D657267650070756D0070696D0063F8
:100890006C61766100636F6E76657200BD2E20BE5E
:1008A0006FBB79BC6563C7E500BE65702E20C0656F
:1008B000BFB36570BFC400BD61702E20BE6FBBBDED
:1008C00061C700BE6FBBBD61C720BB79BD61007948
:1008D000B2C3B32E20BE6FBBBD61C700BE6F632E17
:1008E00020C065BFB36570BFC400636570BE20BB28
:1008F00079BDC300E3BDB820BD65E32E0063BF61D1
:10090000BF796300BFB8BE20B3C3782E00E32EB317
:100910000063BF706FBA61005254430044533136D4
:1009200033310044533138423230000011241FBEAD
:10093000CFEFD0E1DEBFCDBF11E0A0E0B1E0E8E64F
:10094000F2EE00E00BBF02C007900D92A23EB1078D
:10095000D9F717E0A2EEB1E001C01D92A93DB107A1
:10096000E1F70E946A610C9432710C940000FF92CE
:100970000F931F93182FF62E072F0E94442E8823C3
:10098000E1F0412F50E02091E70130E002C03595C1
:1009900027951A95E2F720FF12C0FA01EE0FFF1F0C
:1009A000E40FF51FE451FE4F8F2D902FDC0183E003
:1009B0000D9001928150E1F702C080E001C081E01A
:1009C0001F910F91FF900895FF920F931F93182F7F
:1009D000F62E072F0E94272E8823E1F0412F50E0AA
:1009E0002091E80130E002C0359527951A95E2F78D
:1009F00020FF12C0FA01EE0FFF1FE40FF51FE451B4
:100A0000FE4F8F2D902FDC0183E00D9001928150DD
:100A1000E1F702C080E001C081E01F910F91FF90DB
:100A20000895FF920F931F93182FF62E072F0E9401
:100A30000A2E8823E1F0412F50E02091E90130E0B7
:100A400002C0359527951A95E2F720FF12C0FA01EA
:100A5000EE0FFF1FE40FF51FE451FE4F8F2D902F77
:100A6000DC0183E00D9001928150E1F702C080E04B
:100A700001C081E01F910F91FF900895A0E0B0E0C8
:100A8000E4E4F5E00C94FD708C01EB01FC01808145
:100A90008D3229F40F5F1F4FBB24B39401C0BB24D8
:100AA000F8018081882341F480E090E0DC018883B4
:100AB0009983AA83BB836CC080E090E0DC018883CB
:100AC0009983AA83BB83FF243CC08E3231F4FF207C
:100AD00009F05EC0FF24F39432C08F708A3008F0B2
:100AE00057C0688179818A819B8120E030E040E2B3
:100AF00051E40E94476E6B01E82EA92E862F9D2D92
:100B0000AE2DBA2D88839983AA83BB83F8016081B7
:100B100070E06F707070882777FD8095982F0E9425
:100B2000076D9B01AC016C2D7D2D8E2D9A2D0E94A1
:100B3000016C688379838A839B83F110F3940F5F40
:100B40001F4FF8018081882309F0BFCFFF20A1F05B
:100B5000FA9400E00FC0688179818A819B8120E04E
:100B600030E040E251E40E946C6C688379838A83B0
:100B70009B830F5F0F1578F3BB2061F0888199810B
:100B8000AA81BB81B05888839983AA83BB8302C0A2
:100B900080E001C081E0CDB7DEB7EAE00C941971C6
:100BA0001BBA1ABAA69AAE98A79AAF9AA49AAC9A08
:100BB00080E69AEECF9B02C00197E1F7A49AAC9829
:100BC000A79AAF981BBA8FEF8ABB0895282F2F7072
:100BD0002A3070F482958F708A3060F4880F982FD5
:100BE000990F990F980F920FFB01908381E0089560
:100BF00080E0089580E008951F93CF93DF93182F2E
:100C0000EB018A3010F4888320C0843600F5682F09
:100C100070E080E090E00E94056D0E94D96CCB01ED
:100C20006AE070E00E94AC70462F4295407F410F11
:100C3000CB019B01220F331F53E0880F991F5A9558
:100C4000E1F7280F391F421B488381E001C080E093
:100C5000DF91CF911F910895DC0120E030E080E02A
:100C600070E008C0ED91E827F0E0E05EF94F849174
:100C70002F5F3F4F26173707A8F30895AF92BF9213
:100C8000CF92DF92EF92FF920F931F9320E030E01C
:100C900040E851E40E94476E5B016C017B2D9D2D65
:100CA0000E94D46CE62EF72E082F192FC801B70129
:100CB0000E94076D9B01AC016A2D7B2D8C2D9D2D13
:100CC0000E94006CD62EC72EB82EA92EA601950123
:100CD000652F742F832F922F20E030E040E05FE3F8
:100CE0000E94436E87FD06C00894E11CF11C011DA3
:100CF000111D13C0A6019501652F742F832F922F0C
:100D000020E030E040E05FEB0E94656C18162CF0AC
:100D10000894E108F10801091109C7011F910F9119
:100D2000FF90EF90DF90CF90BF90AF900895803C00
:100D300030F0805CE82FF0E0E656FA4F8491089599
:100D4000A4E0B0E0E6EAF6E00C9405718091E201DF
:100D500081FF0FC081E08C8388E192E064E0AE0106
:100D60004F5F5F4F0E9482368091E201887F8093BF
:100D7000E2012496E2E00C942171A7E0B0E0E3ECFC
:100D8000F6E00C940471182F82E189831A821B8289
:100D90008091E20182FF13C08BE18F831C8381E08D
:100DA0008D8387E292E064E0AE014C5F5F4F0E946A
:100DB0008236812FBE016F5F7F4F0E949B21279655
:100DC000E3E00C942071A8E0B0E0E9EEF6E00C94CA
:100DD0000471182F80E2898392E19A839B838C832C
:100DE000812F90E02BE030E0829FF001839FF00D97
:100DF000929FF00D1124E55CFC4F29813A814B81D3
:100E00005C8126833783408751878091E20182FF8E
:100E100013C08CE188871D838CE08E8387E292E08B
:100E200064E0AE014B5F5F4F0E948236812FBE01AE
:100E30006F5F7F4F0E947E212896E3E00C94207123
:100E4000A7E0B0E0E6E2F7E00C940471182F1982F5
:100E50001A8288E08B838091E20182FF13C080E2D6
:100E60008F831C8382E08D8387E292E064E0AE0191
:100E70004C5F5F4F0E948236812FBE016F5F7F4FB4
:100E80000E94031E2796E3E00C942071A7E0B0E0D7
:100E9000ECE4F7E00C940471182F19821A8280E1B7
:100EA0008B838091E20182FF13C081E28F831C83D8
:100EB00083E08D8387E292E064E0AE014C5F5F4F98
:100EC0000E948236812FBE016F5F7F4F0E94E61D18
:100ED0002796E3E00C9420718091C107882329F0C4
:100EE000A59AAD981092C1070895A59AAD9A81E090
:100EF0008093C10708958150803448F4E82FF0E0D2
:100F0000EE0FFF1FE45FFE4F2081318102C02EED06
:100F100033E0C9010895E091F502F091F6022091C5
:100F2000F70293812917C9F4958120913A0222335F
:100F300031F4992311F0915009C0982F07C028333C
:100F400039F4981710F49F5F01C090E095830895DD
:100F50002D3311F0253309F496870895DC01842F91
:100F6000952F9D01260F311D04C0FC010196E491CF
:100F7000ED93A217B307C9F70895FF920F931F933C
:100F8000F82E8B010E949B218823E1F08F2D90E0A9
:100F90002BE030E0829FF001839FF00D929FF00DD7
:100FA0001124DF01A55CBC4F8C9182FF0DC0E45C75
:100FB000FC4F802F912FDC0183E00D900192815036
:100FC000E1F702C080E001C081E01F910F91FF9026
:100FD0000895FF920F931F93F82E8B010E94031E1A
:100FE0008823E1F08F2D90E02BE030E0829FF0012C
:100FF000839FF00D929FF00D1124DF01A55CBC4F83
:101000008C9183FF0DC0E45CFC4F802F912FDC019D
:1010100083E00D9001928150E1F702C080E001C0B1
:1010200081E01F910F91FF900895FF920F931F93FE
:10103000F82E8B010E94E61D8823E1F08F2D90E0B1
:101040002BE030E0829FF001839FF00D929FF00D26
:101050001124DF01A55CBC4F8C9184FF0DC0E45CC2
:10106000FC4F802F912FDC0183E00D900192815085
:10107000E1F702C080E001C081E01F910F91FF9075
:1010800008951F93CF93DF93182FEB010E947E21C9
:101090008823B9F0812F90E02BE030E0829FF001AF
:1010A000839FF00D929FF00D1124E55CFC4F888129
:1010B0009981AA81BB8186839783A087B18781E0CC
:1010C00001C080E0DF91CF911F910895FB0190E076
:1010D0002BE030E0829FD001839FB00D929FB00D36
:1010E0001124A55CBC4F1A968C911A97823079F026
:1010F000833019F08130C9F50FC0928180912102AF
:10110000981799F5938180912202981771F5918132
:1011100080912002981759F52081283208F13091EA
:101120001F023832E8F08091200290912102843031
:1011300061F0863051F0893041F0813131F08230F8
:1011400031F4992331F098E205C090E303C091E3B4
:1011500001C099E2921720F481E0931731F408C09E
:1011600081E090911F02291719F080E0089580E036
:10117000089590913402992321F0909135029B308B
:1011800049F440933502E4E3F2E091E090933402B5
:10119000848365830895A7E0B0E0E1EDF8E00C9466
:1011A000FE70B82E282F30E08BE090E0289F600181
:1011B000299FD00C389FD00C1124EBE3EE2EE3E0F6
:1011C000FE2EEC0CFD1CF7018081897E88608083F7
:1011D0008B2D8E010F5F1F4FB8010E945D18882371
:1011E000E9F08CE192E0B801AE014C5F5F4F0E94E4
:1011F000500B882399F06C817D818E819F81A6019F
:10120000445C5C4F0E94B90A882341F084E06B2D56
:10121000F70145810E94B90881E001C080E027966E
:10122000E9E00C941A71A6E1B0E0E9E1F9E00C9470
:10123000F970D82E282F30E08BE090E0289F7001C5
:10124000299FF00C389FF00C1124C701845C9C4F3F
:101250006CE172E0AE01495F5F4F0E94160B88237C
:1012600009F465C08D2D8E010F5F1F4FB8010E94DC
:101270005D18882309F45BC0FBE4AF2EFAE0BF2EB3
:10128000C801BE01655F7F4FF5010995882309F408
:101290004EC06B847C848D849E848BE393E0E80E47
:1012A000F91EF701C4808E010C5F1F4F8D2DB80110
:1012B0000E943A188823D9F1C801BE01615F7F4FAF
:1012C000F5010995882399F1F701648170E0615077
:1012D0007040882777FD8095982F2F853889498918
:1012E0005A890E9481707B018C016C2D70E080E036
:1012F00090E0A40193010E948170E60EF71E081F82
:10130000191F8F819885A985BA858E159F05A0071D
:10131000B10768F4DB8A1D8A84E292E066E0AE01E0
:101320004D5E5F4F0E9482368D2D0E94CB086696DF
:10133000EEE00C94157187E060E040E00E94B9088F
:101340000895A7E0B0E0E7EAF9E00C940071D82E28
:10135000E82EFF2481E090E00D2C02C0880F991F39
:101360000A94E2F7382F30952091E6012323209349
:10137000E6012091E70123232093E7012091E90171
:1013800023232093E9012091E801282B2093E801F1
:101390008D2D8E010F5F1F4FB8010E94A819882361
:1013A00019F18CE192E0B801AE014C5F5F4F0E94F1
:1013B000500B8823C9F06C817D818E819F81A701AC
:1013C000440F551F4E0D5F1D44515E4F0E94B90AD8
:1013D000882351F0F701EB51FE4F81E06D2D47A1BD
:1013E0000E94B90881E001C080E02796E7E00C94F4
:1013F0001C71A4E0B0E0EFEFF9E00C940571BC01C2
:101400008CE192E0AE014F5F5F4F0E94500B88234A
:1014100069F069817A818B819C8145ED57E00E945A
:10142000B90A83E08093D3071092D4072496E2E0B0
:101430000C942171A3E0B0E0E0E2FAE00C940371B7
:101440008C01FC018081BE016F5F7F4F0E94E60529
:101450008823E1F089818831C8F4F8018181BE01D7
:101460006E5F7F4F0E94E605882381F08A818C336E
:1014700068F4F8018281BE016D5F7F4F0E94E6052E
:10148000882321F081E09B819C3308F080E0239643
:10149000E4E00C941F71A3E0B0E0E1E5FAE00C9405
:1014A00001717C018B01FC018281BE016F5F7F4F66
:1014B0000E94E605882309F457C089818C3308F01F
:1014C00053C090E0A0E0B0E0F80180839183A28354
:1014D000B383F7018181BE016E5F7F4F0E94E605F5
:1014E000882309F441C06A816C33F0F570E080E034
:1014F00090E02CE330E040E050E00E9481709B01DE
:10150000AC01F80180819181A281B381820F931F88
:10151000A41FB51F80839183A283B383F7018081C9
:10152000BE016D5F7F4F0E94E6058823E9F06B8165
:101530006831D0F470E080E090E020E13EE040E0EF
:1015400050E00E9481709B01AC01F8018081918183
:10155000A281B381820F931FA41FB51F8083918343
:10156000A283B38381E001C080E02396E6E00C947F
:101570001D71A0E0B0E0EFEBFAE00C9400717B018C
:101580008C01EA0108C020E83EEA4EEF5FEFE20E70
:10159000F31E041F151F30E8E31631E5F30631E0B2
:1015A000030730E0130778F780E009C020EF31EF40
:1015B0004FEF5FEFE20EF31E041F151F8F5F30E148
:1015C000E3163EE0F30630E0030730E0130770F760
:1015D000DD2409C024EC3FEF4FEF5FEFE20EF31E76
:1015E000041F151FD3943CE3E316F1040105110514
:1015F00088F7BE010E94FC05882389F0BE016F5F59
:101600007F4F8D2D0E94FC05882349F0BE016E5F3F
:101610007F4F8E2D0E94FC0591E0882309F490E015
:10162000892FCDB7DEB7E7E00C941C71A8E0B0E0DD
:10163000ECE1FBE00C94FF706B017A010BE41AE023
:10164000BE016F5F7F4FF8010995882321F1C60124
:10165000BE016B5F7F4FF80109958823E1F08D8112
:101660009E81AF81B88529813A814B815C81821747
:101670009307A407B50720F480589E4AAE4FBF4F8A
:10168000821B930BA40BB50BF70180839183A2837C
:10169000B38381E001C080E02896E8E00C941B71E0
:1016A000A8E0B0E0E6E5FBE00C94FF706B017A0186
:1016B0000BE41AE0BE016F5F7F4FF80109958823A4
:1016C000D9F0C601BE016B5F7F4FF80109958823F1
:1016D00099F089819A81AB81BC812D813E814F81B6
:1016E0005885820F931FA41FB51FF7018083918334
:1016F000A283B38381E001C080E02896E8E00C94E7
:101700001B71FC01DB0190818C918917A0F0981767
:10171000A0F0918111968C911197891760F098171C
:1017200060F0228112969C911297921740F081E00E
:10173000291730F402C081E0089580E0089581E027
:101740000895A3E0B0E0E7EAFBE00C9403718C019C
:10175000FC018381982F9F709A3008F048C08295D1
:101760008F708A3008F043C08281BE016F5F7F4F67
:101770000E94E6058823D9F189818823C1F183700D
:101780008983F8018181BE016E5F7F4F0E94E6056B
:10179000882369F18A8181508C3048F5F801808175
:1017A000BE016D5F7F4F0E94E605882301F19B819A
:1017B0009923E9F08A81843031F0863021F0893034
:1017C00011F08B3021F481E09F3190F010C0823015
:1017D00059F48981882321F081E09D3148F007C0C8
:1017E00081E09E3128F003C081E0903208F080E073
:1017F0002396E4E00C941F71A4E0B0E0E2E0FCE08A
:101800000C9403718C01FC018181BE016F5F7F4FDD
:101810000E94E605882309F45FC0F8018081BE01BB
:101820006E5F7F4F0E94E605882309F455C0F801DA
:101830008281BE016D5F7F4F0E94E605882309F417
:101840004BC0F8018381BE016C5F7F4F0E94E605AB
:10185000882309F441C02C81622F70E084E690E077
:10186000689FA001699F500D789F500D11248B81B6
:10187000480F511D8981833028F4415050409A818E
:101880009D5F9A839A81FA01E90FF11D569547955C
:1018900056954795E40FF51F2695269530E0261BB3
:1018A000370B9FE1899FC00111240A966CE070E01C
:1018B0000E94C070260F371F2E0F3F1FC90167E01F
:1018C00070E00E94C07021E030E002C0220F331FA0
:1018D0008A95E2F7822F01C080E02496E4E00C9420
:1018E0001F71A4E0B0E0E7E7FCE00C94FF707C011E
:1018F000C62E8A01FC018181BE016F5F7F4F0E946D
:10190000E605882309F48DC0F7018081BE016E5F72
:101910007F4F0E94E605882309F483C0F701828186
:10192000BE016D5F7F4F0E94E605882309F479C0F0
:10193000F7018381BE016C5F7F4F0E94E60588231B
:1019400009F46FC08A818C0D2B81422F43709981DD
:101950003C8151E0C52ED12C943031F0963021F0ED
:10196000993011F09B3021F48F3130F18E510FC03E
:10197000923051F4442321F08D31F0F08C5107C0A6
:101980008E31D0F08D5103C08032B0F08F519F5F07
:101990009D3060F0233631F4333609F442C03F5FA6
:1019A00020E001C02F5F422F437091E00894C11CDA
:1019B000D11CC114D10481F699838A832B833C8383
:1019C0008A81B8010E94FC05882359F1F1E0CF1605
:1019D000D10471F4F7018181F8018183F7018281DB
:1019E000F8018283F7018381F801838391E01AC0B3
:1019F000B8016F5F7F4F89810E94FC05882389F0C1
:101A0000B8016E5F7F4F8B810E94FC05882349F0EF
:101A1000B8016D5F7F4F8C810E94FC0591E08823A7
:101A200009F490E0892F2496E8E00C941B71A4E05F
:101A3000B0E0EDE1FDE00C9400717C01D62E8A014E
:101A4000FC018081BE016F5F7F4F0E94E605882305
:101A500009F488C08981D816B0F48D198983B8013A
:101A60000E94FC05882309F47DC0F7018181F801FB
:101A70008183F7018281F8018283F7018381F80174
:101A8000838391E070C0F7018181BE016E5F7F4F5B
:101A90000E94E605882309F465C0F7018281BE0132
:101AA0006D5F7F4F0E94E605882309F45BC0F70154
:101AB0008381BE016C5F7F4F0E94E605882309F495
:101AC00051C02B81522F53709A814C81898125C03E
:101AD000913069F4222311F0215005C0442309F408
:101AE00041C0415023E6522F53709CE011C09150E9
:101AF000943061F0963051F0993041F09B3031F0E4
:101B0000923031F4552331F43DE105C03EE103C08C
:101B10003FE101C03CE1D81A832FD816C8F69A835A
:101B20002B834C838D198983B8010E94FC0588237F
:101B3000C9F0B8016F5F7F4F8A810E94FC0588233E
:101B400089F0B8016E5F7F4F8B810E94FC0588236E
:101B500049F0B8016D5F7F4F8C810E94FC0591E0D8
:101B6000882309F490E0892F2496E7E00C941C71F7
:101B7000EF92FF920F931F937B018C0126E93EE3C6
:101B80004CEE5FE30E94656C87FD54C0C801B7014D
:101B900026E03FE241EB50E40E94656C87FD3EC0C9
:101BA000C801B70128E237EA43E151E40E94656CBD
:101BB00087FD36C0C801B7012EEC36EB4EE451E488
:101BC0000E94656C87FD2EC0C801B7012FE333EE7C
:101BD00044E851E40E94656C87FD26C0C801B70146
:101BE00022E13BE642EA51E40E94656C87FD1EC09B
:101BF000C801B7012AEE32EF4FEB51E40E94656C49
:101C000087FD16C0C801B7012DEB3AE74DED51E451
:101C10000E94656C87FF0EC088E00DC082E00BC09B
:101C200083E009C084E007C085E005C086E003C00A
:101C300087E001C081E01F910F91FF90EF90089520
:101C4000A2E0B0E0E6E2FEE00C9404718A83162F75
:101C5000BE016F5F7F4F0E94E6058981982F995FD3
:101C6000103428F48F5F891711F0110FF9CF898391
:101C70008981803210F0875089838981BE016E5F2F
:101C80007F4F0E94FC058A812296E3E00C9420712C
:101C9000A6E0B0E0EEE4FEE00C94FF70FC017B01F6
:101CA000642F89018181982F93509D3068F1803194
:101CB00009F043C0C0808C2D853208F440C0403408
:101CC000E9F484E089831A821B8261E8C62E6BE006
:101CD000D62EC701BE016F5F7F4FF601099588239D
:101CE00061F583E08C831D821E82C701BE016C5F9B
:101CF0007F4FF6010995882329F521C08C2D0E947C
:101D0000200EC816D0F41BC08330C9F4C080FC2D4F
:101D1000F53298F0403461F48C831D821E82C70135
:101D2000BE016C5F7F4F0E94810B882331F007C09A
:101D30008C2D0E94200EC81610F481E001C082E0B4
:101D4000F80180832696E8E00C941B71FF920F93B4
:101D50001F93F82E8B010E94AC24882399F08F2DBD
:101D600090E0FC01EE0FFF1FE80FF91FE258F84F5B
:101D7000802F912FDC0183E00D9001928150E1F7DB
:101D800081E001C080E01F910F91FF900895FF92C4
:101D90000F931F93F82E8B010E948F24882399F0B4
:101DA0008F2D90E0FC01EE0FFF1FE80FF91FEA56A0
:101DB000F84F802F912FDC0183E00D90019281502C
:101DC000E1F781E001C080E01F910F91FF9008953D
:101DD00020917D0730E0082E02C0359527950A94A2
:101DE000E2F720FF12C09091610021E030E002C0D4
:101DF000220F331F8A95E2F7922B90936100809116
:101E00006200822B8093620012C09091610021E0F9
:101E100030E002C0220F331F8A95E2F7922B909395
:101E2000610080916200209528232093620081E068
:101E3000089520917D0730E0082E02C03595279542
:101E40000A94E2F720FF13C09091610021E030E096
:101E500002C0220F331F8A95E2F7922B9093610004
:101E600080916200209528232093620011C09091F8
:101E7000610021E030E002C0220F331F8A95E2F7B3
:101E8000922B9093610080916200822B809362007C
:101E900081E00895882319F08130A1F40AC080916F
:101EA000B70780FF03C0A09AA8980895A09AA89A9F
:101EB00008958091B70781FF03C0A19AA99808955A
:101EC000A19AA99A0895882319F0A198A99808952C
:101ED000A098A8980895A4E0B0E0E1E7FFE00C9492
:101EE0000371AC018B01CE01019662E00E94AE0746
:101EF000000F111F49815A81400F511FCE010396D7
:101F000062E00E94AE078B819C812496E4E00C94F1
:101F10001F71A1E0B0E0EFE8FFE00C940571AC01A7
:101F20004E5F5F4FCE01019661E00E94AE0789814E
:101F30002196E2E00C942171809121038B7F8093A4
:101F400021030895EF92FF920F931F93CF93DF9396
:101F5000E091F502F091F602C081D1810281CE01BB
:101F60000E94890F182F11501230E8F4E091F50209
:101F7000F091F6020383CE0160E070E00E946B0FE7
:101F80009093FA028093F902112319F48BE399E4F8
:101F900005C0CE0161E070E00E946B0F9093FC02DF
:101FA0008093FB0240C0CE0160E070E00E946B0FA6
:101FB0009093FA028093F902E091F502F091F60213
:101FC000E380F02E13C01F1510F4FF24F394CE010C
:101FD0006F2D70E00E946B0FEE2DF0E0EE0FFF1FF3
:101FE000E750FD4F91838083E394F3948E2D8230EC
:101FF00050F3E091F502F091F602F38010C0002357
:1020000009F4012FCE01602F70E00E946B0FEF2DBD
:10201000F0E0EE0FFF1FE750FD4F91838083FA94AD
:102020000150FF2061F7809121038160809321039B
:10203000CDB7DEB7E6E00C941D718091F50290916A
:10204000F60222E08134920749F009979093F60254
:102050008093F5020E94A20F10923A020895E09137
:10206000F502F091F602918380836283433010F48D
:10207000138202C081E0838344830E94A20F1092E6
:102080003A020895A091F502B091F602FD01399649
:10209000F093F602E093F5021A969C938E931997AB
:1020A0006283433010F4138202C081E0838344834F
:1020B0000E94A20F10923A02089580E980932203B1
:1020C000E5EFF2E0808191810997918380830E94FE
:1020D000A20F08951F93CF93DF93E091F502F09143
:1020E000F602808191810E94890F8150A091F502B2
:1020F000B091F60211E014969C911497933008F475
:1021000010E08230A8F413969C911397191760F48D
:1021100012968C911297815012968C93129791502F
:1021200013969C93139738C012968C93129717C0EE
:1021300012969C911297191728F4915012969C931D
:10214000129703C012968C93129713968C91139743
:10215000181720F0CBEFD2E021E00AC0815013968F
:102160008C93139719C09A918A919B838A832150EB
:102170001217C8F312966C9112978D919C9170E092
:102180000E946B0FE12FF0E0EE0FFF1FE65CFD4FAA
:10219000E154FF4F9183808380912103816080937C
:1021A0002103DF91CF911F910895E091F502F09105
:1021B000F602808191810E94890F8150E091F502A1
:1021C000F091F60291E02481233008F490E082300F
:1021D00060F42381281730F42F5F238382818F5F7F
:1021E000828325C09283938322C02281281718F40A
:1021F0002F5F228301C092838381882361F481E071
:10220000838315C08091FB029091FC029093FA02A7
:102210008093F90202C09923A9F3628180819181A0
:1022200070E00E946B0F9093FC028093FB02809100
:102230002103816080932103089591B5986191BD38
:1022400081BD81B5886081BD0895EAE8F0E0208114
:10225000287F2083208121602083909387008093B2
:1022600086001B98139AEBE8F0E0808180648083FD
:1022700080818F7780830895309136022091E30129
:10228000332349F021FF11C0109236020E9425111C
:10229000A59AAD9A089521FD08C081E08093360289
:1022A000CB010E942511A59AAD980895EBE8F0E0C6
:1022B00080818F7B808380818F778083EAE8F0E064
:1022C0008081887F8083808180830895109234028A
:1022D0001092360280E2809337020E94561180915C
:1022E000C107882319F0A59AAD9A0895A59AAD98CB
:1022F00008950E94661181E08093D3071092D4075D
:102300000895E82FF92F1BC0219198E0AA98A29A6E
:1023100000C000C020FF03C0A298AA9802C0AA98DB
:10232000A29A36E13A95F1F70000A298AA9832E015
:102330003A95F1F700C0915011F02695E7CF9E2F06
:10234000981B961708F30895AA98A29A8BEB91E030
:102350000197F1F70000A298AA9888EF90E0019702
:10236000F1F700C000009A9B07C082EC90E0019753
:10237000F1F7000081E0089580E00895A2E0B0E068
:10238000E4ECF1E10C940471182F0E94A41188234D
:1023900051F08CEC89831A83CE01019662E00E9491
:1023A000811181E001C080E02296E3E00C9420716D
:1023B000CF93DF93EC010E94A411882369F18EEB87
:1023C0000E94BE11882341F1FE0189E098E020813E
:1023D00026952083AA98A29A00C000C0A298AA9825
:1023E00000C000C09A9B03C020812068208326E1A2
:1023F0002A95F1F7000022E02A95F1F700C09150EC
:1024000031F781503196882309F7CE0168E00E94A8
:102410002C0691E02885821390E0892FDF91CF91DF
:102420000895ACE0B0E0E7E1F2E10C940571A29808
:10243000AA988EE40E94BE11882331F18DE789832A
:1024400089EC8A8380E68B83CE01019663E00E944B
:102450008111CE0104960E94D8118823A9F08E81A3
:102460008D3791F48F81893C79F488858076803628
:1024700059F488E40E94BE11882331F084E40E945C
:10248000BE1191E0882309F490E0892F2C96E2E0B8
:102490000C942171A4E0B0E0E0E5F2E10C94057148
:1024A0000E94111210923803109237038091E201BA
:1024B00084FF14C085E08C8383E08A838BE192E003
:1024C00064E0AE014F5F5F4F0E94823680E28093EE
:1024D0003A038091E2018B7F8093E2012496E2E04F
:1024E0000C94217120B32095277082B3887F82BB22
:1024F00081B3876081BB81B3877081BB82B3886FF2
:1025000082BB86E08A95F1F7000080B392B39770A2
:1025100092BB91B3986F91BB92B3976092BB91B30A
:10252000987F91BB222309F44AC090E08095909552
:10253000887F907053E0959587955A95E1F7213003
:1025400071F48823E1F1813051F1823051F184300E
:1025500051F1883051F1803191F58DE308952230A9
:1025600071F4882361F1813011F1823011F18430EE
:1025700011F1883011F1803111F58EE20895243087
:10258000F1F48823E1F08130E1F08230E1F0843031
:10259000E1F08830E1F08031E1F480E3089583E6F2
:1025A000089587E3089588E3089589E3089582E60E
:1025B000089584E3089585E3089586E3089580E00F
:1025C000089581E6089581E3089582E3089583E301
:1025D000089580E008950F931F9306B601FE4DC045
:1025E0008091C307882379F01092C30788B7816070
:1025F00088BF88B7826088BF88B7846088BF88B783
:10260000806188BF3AC008B600FC06C008B601FC6D
:1026100003C008B602FE19C00E947212082F0E9461
:102620007212182F0E947212002331F0101721F439
:10263000181711F41093C20788B7816088BF88B754
:10264000826088BF88B7846008C008B604FE15C0E1
:1026500084E68093C20788B7806188BF12BE8FEF7F
:1026600081BF83B7887F83BF83B7876083BF86B707
:10267000826086BF81E08093C3071F910F91089508
:10268000C798BF9A82E08A95F1F700C0C698BE98B5
:1026900082E08A95F1F700C0C798BF988CE08A95D0
:1026A000F1F700000895FC0188E09081990F908374
:1026B00092E09A95F1F700C0C698BE9899E1B69954
:1026C00002C09150E1F792E09A95F1F700C0B79BF4
:1026D00003C0908191609083C698BE9A815029F77B
:1026E00082E08A95F1F700C0662311F0C798BF9A7F
:1026F00092E09A95F1F700C0C698BE9889E1B69924
:1027000002C08150E1F782E08A95F1F700C0C698D7
:10271000BE9A92E09A95F1F700C0C798BF980895C5
:10272000A1E0B0E0E6E9F3E10C940571BD9AC59A29
:10273000813029F4CE01019660E00E9453130E947B
:1027400040132196E2E00C94217198E022E02A9552
:10275000F1F700C087FF03C0C798BF9802C0C798B1
:10276000BF9A22E02A95F1F700C0C698BE9829E1E9
:10277000B69902C02150E1F722E02A95F1F700C096
:10278000C698BE9A915011F0880FE0CF82E08A95EA
:10279000F1F700C0C798BF9822E02A95F1F700C072
:1027A000C698BE9889E1B69902C08150E1F782E0EF
:1027B0008A95F1F700C0B79904C0C698BE9A81E027
:1027C000089580E0089592E09A95F1F700C0C698C8
:1027D000BE9899E1B69902C09150E1F792E09A95BE
:1027E000F1F700C0C798BF9A92E09A95F1F700C040
:1027F000C698BE9A862B0E94A5130895FF920F9348
:102800001F93CF93DF93082FEB01F42E12E080EAA1
:1028100060E00E94E3138823D9F0802F0E94A51363
:102820008823B1F080EA61E00E94E313882381F0FD
:1028300009C08E010F5F1F4FFA94CE016F2D0E94C9
:102840005313E801FF20A9F70E94401380E005C060
:102850001150E9F60E94401381E0CDB7DEB7E5E004
:102860000C941E71A3E0B0E0E8E3F4E10C94007175
:10287000D62EE72EF42E4F5F8E010F5F1F4FB8014B
:102880000E94FE138823C1F4C8016F2D0E942C06FC
:10289000A8014F0D511DFA019081981779F4D801C4
:1028A0008D2D9E2D04C02D91FC012193CF01A417E5
:1028B000B507C9F780E003C081E001C082E023963C
:1028C000E7E00C941C71A1E0B0E0E9E6F4E10C94BF
:1028D000F970B82EA62E972E742E62E0862E7E01F9
:1028E0000894E11CF11C80EA60E00E94E313882355
:1028F000E1F18B2D0E94A5138823B9F16A2C0A2DD2
:10290000192DCA2CD92C07C0F60181916F010E94A4
:10291000A513882369F18C2D86198715A8F30E94C9
:10292000401380EA60E00E94E313882309F18B2DB5
:102930000E94A5138823E1F080EA61E00E94E3137E
:102940008823B1F0C72C0BC0CA94C7016C2D0E941C
:102950005313F80181918F019981981711F4CC20BC
:1029600099F70E944013CC2039F08A9409F0BBCF2C
:102970000E94401381E001C080E02196EEE00C94BB
:102980001571A4E0B0E0E7ECF4E10C940471182FA9
:10299000CB01262F392FD901FE0131969F01240F3B
:1029A000311D02C05D915193E217F307D9F7642FEF
:1029B0004C830E942C06BE016F5F7F4F4C81FB0150
:1029C000E40FF11D80834F5F812F0E94631491E01B
:1029D000882309F490E0892F2496E3E00C94207179
:1029E000FF920F931F93CF93DF93082FEB01142FC8
:1029F0000E94321474E6F72EF00E882349F48F2DCE
:102A0000BE01412F0E943214882389F08F2D08C007
:102A10008F2DBE01412F0E943214882351F4802F44
:102A2000BE01412F0E94C11491E0882319F490E067
:102A300001C092E0892FCDB7DEB7E5E00C941E719E
:102A40000F931F93CF93DF93082FEB01142F0E9456
:102A5000C114882359F4802F8C59BE01412F0E9444
:102A6000631491E0882319F490E001C091E0892F6C
:102A7000DF91CF911F910F910895A4E0B0E0E3E4BE
:102A8000F5E10C94FF708C0180E8898380E0BE0141
:102A90006F5F7F4F41E00E946314882309F055C0A7
:102AA000C8010E94FC0B90E080FD05C09F5F98303C
:102AB00021F08695F9CFC92E01C0CC24B2E0EB2ECF
:102AC000F12CEC0EFD1EF8018281B7010E94E60593
:102AD0008A8183708A838295880F880F807CF801B1
:102AE0009081892B8B83C294CC0CA0EECA22818169
:102AF000C82ACC82E3E0CE2ED12CCC0EDD1E85E0A0
:102B0000B60142E00E9463148823F9F41982BE01E1
:102B10006F5F7F4F41E00E9463148823B1F481E12D
:102B2000B70141E00E942015882379F4F8018281E1
:102B30008B8383818C8385E1B60142E00E9420155E
:102B400091E0882319F490E001C091E0892F249648
:102B5000E8E00C941B71A5E0B0E0E1EBF5E10C942A
:102B600001718C0180E07E010894E11CF11CB70129
:102B700041E00E94FE138823E9F4898187FF08C0A1
:102B8000198280E0B70141E00E946314882391F428
:102B900081E0BE016E5F7F4F44E00E94FE138823F8
:102BA00049F48B81F80182838C8181838D818083BC
:102BB00080E001C081E02596E6E00C941D71A5E05F
:102BC000B0E0E5EEF5E10C9401718C0180E88983B9
:102BD00080E07E010894E11CF11CB70141E00E94F5
:102BE00063148823D9F41A82F80182818B8381814E
:102BF0008C8380818D8381E0BE016E5F7F4F44E0D6
:102C00000E946314882351F41982B70141E00E94A5
:102C1000631491E0882319F490E001C091E0892FBA
:102C20002596E6E00C941D71A2E0B0E0EAE1F6E141
:102C30000C94017180E960E00E94E313882309F499
:102C400068C082E20E94A513882309F462C00E9432
:102C5000401380E960E00E94E313882309F459C01F
:102C60008CEA0E94A513882309F453C08EE00E94C9
:102C7000A513882309F44DC00E94401308EE1DEFF0
:102C800082E0E82EF12CEC0EFD1E80E960E00E944F
:102C9000E313882309F43DC08CEA0E94A51388231E
:102CA000C1F180E961E00E94E313882391F1C7013B
:102CB00060E00E9453130E9440138A8184FD2EC05D
:102CC0000150104011F725C08CEA0E94A5138823FB
:102CD00001F180E961E00E94E3138823D1F0CE0185
:102CE000019660E00E9453130E94401389818F7007
:102CF0008E3079F480E960E00E94E313882349F084
:102D000081E50E94A513882321F00E94401381E0F1
:102D100001C080E02296E6E00C941D7180E960E03D
:102D20000E94E3138823A9F3CFCFA2E0B0E0EBE940
:102D3000F6E10C9401718C0180E960E00E94E313DC
:102D4000882309F449C08CEA0E94A513882309F45A
:102D500043C080E961E00E94E3138823E9F1CE01DA
:102D6000029660E00E9453130E9440138A818F7084
:102D70008E30B9F10E941416882371F132C08AEAAC
:102D80000E94A513882341F180E961E00E94E313CA
:102D9000882311F17E010894E11CF11CC70161E058
:102DA0000E9453138981F80110828183C70160E07A
:102DB0000E9453130E944013898190E0F801208102
:102DC0003181822B932B24E0959587952A95E1F705
:102DD0009183808381E001C080E02296E6E00C943C
:102DE0001D7180E960E00E94E3138823A9F3C7CF37
:102DF000C798BF9800C000C0C698BE980E944013F4
:102E00008DE38A95F1F700C008950E94F8160E949C
:102E1000141691E0882309F490E0892F0895A9E021
:102E2000B0E0E5E1F7E10C9405718FEF91E10197D6
:102E3000F1F700C00000CE0103960E94AB15882375
:102E400049F4CE0101960E949516882319F40E9438
:102E5000A00615C08091E20182FF11C082E089873F
:102E600084E08F838BE192E064E0AE014A5F5F4FC4
:102E70000E9482368091E2018D7F8093E201299643
:102E8000E2E00C9421710F931F93CF93DF93162FE1
:102E900020912D0330912E0340912F035091300348
:102EA0002093310330933203409333035093340320
:102EB000BD9AC59800E02AC02091310330913203B9
:102EC0004091330350913403213060E2360760E0D3
:102ED000460760E05607E8F4EC01219661E00E94A5
:102EE00053138091310390913203A0913303B09139
:102EF00034030196A11DB11D8093310390933203D9
:102F0000A0933303B09334030F5FCE010117A0F2F7
:102F1000012FBD9AC59A8091310390913203A091FF
:102F20003303B091340380932D0390932E03A09329
:102F30002F03B0933003011721F00E940F1780E098
:102F400001C081E0DF91CF911F910F910895DF9231
:102F5000EF92FF920F931F93D82EE0902D03F090E5
:102F60002E0300912F0310913003E0923103F09271
:102F700032030093330310933403BD9AC59881E064
:102F8000E81680E2F80680E0080780E01807C8F439
:102F900082EA60E00E94E313882399F08F2D0E945B
:102FA000A513882371F08E2D0E94A513882349F064
:102FB0008D2D813089F482EA61E00E94E313882339
:102FC00059F4BD9AC59A0E940F1780E01F910F9186
:102FD000FF90EF90DF9008958091E20186608093EA
:102FE000E20181E0F3CFA9E0B0E0E9EFF7E10C9472
:102FF000F8705B016C01942E852E722E32E0632EE8
:10300000522E53948E010F5F1F4F7801E20EF11C78
:10301000A0922D03B0922E03C0922F03D0923003C2
:1030200081E00E94A7178823F1F0C801652D0E9456
:1030300043178823C1F081E00E949013C801672DD7
:103040000E942C06F7019081891769F4F801940118
:10305000832F982DDC0102C081918D93EE15FF0521
:10306000D9F781E003C06A9499F680E02996EFE0F1
:103070000C9414711F93CF93DF93182FEB01682FDB
:1030800070E080E090E02CE330E040E050E00E940F
:10309000817066597E4F8F4F9F4FAE0123E00E9493
:1030A000F317882329F4812F0E94460780E001C08E
:1030B00081E0DF91CF911F9108951F93CF93DF930C
:1030C000182FEB01682F70E080E090E02CE330E0F7
:1030D00040E050E00E9481706A597E4F8F4F9F4FB1
:1030E000AE0123E00E94F317882329F4812F0E9468
:1030F000200780E001C081E0DF91CF911F9108950A
:103100001F93CF93DF93182FEB01682F70E080E0BF
:1031100090E02CE330E040E050E00E948170645C7D
:103120007E4F8F4F9F4FAE0124E00E94F3178823FC
:1031300029F4812F0E94E30680E001C081E0DF9145
:10314000CF911F9108951F93CF93DF93182FEB0119
:10315000682F70E080E090E02CE330E040E050E049
:103160000E948170685C7E4F8F4F9F4FAE0123E0BD
:103170000E94F317882329F4812F0E94BD0680E066
:1031800001C081E0DF91CF911F910895A7E0B0E0E9
:10319000ECECF8E10C940271F82E8B01682F70E0D2
:1031A00080E090E02EE030E040E050E00E9481704E
:1031B0006C547F4F8F4F9F4FA80123E00E94F3175D
:1031C000882389F5DE011196E3E0F1E083E00190C8
:1031D0000D928150E1F78F2D90E0FC01EE0FFF1F63
:1031E000E80FF91FEA56F84FDE01119683E00D90C3
:1031F00001928150E1F78091E20182FF16C083E1E4
:103200008F83FC8284E08D838AE292E064E0AE01E9
:103210004C5F5F4F0E9482368F2DBE016F5F7F4FE4
:103220000E948F2402C081E001C080E02796E5E083
:103230000C941E71A7E0B0E0E0E2F9E10C94027199
:10324000F82E8B01682F70E080E090E02EE030E0F7
:1032500040E050E00E94817060557F4F8F4F9F4F3C
:10326000A80123E00E94F317882361F582E1898396
:103270001A821B828F2D90E0FC01EE0FFF1FE80FDA
:10328000F91FE258F84FDE01119683E00D9001928C
:103290008150E1F78091E20182FF16C082E18F83C5
:1032A000FC8281E08D838AE292E064E0AE014C5FB3
:1032B0005F4F0E9482368F2DBE016F5F7F4F0E944D
:1032C000AC2402C081E001C080E02796E5E00C94C8
:1032D0001E71A7E0B0E0EFE6F9E10C940271F82E60
:1032E0008B01682F70E080E090E026E130E040E064
:1032F00050E00E948170685F7F4F8F4F9F4FA80101
:1033000023E00E94F3178823E1F48091E20182FF19
:103310001AC08CE08F83FC8283E08D8381E292E08F
:1033200064E0AE014C5F5F4F0E94823619821A82C0
:1033300080E18B838F2DBE016F5F7F4F0E940A2E2D
:1033400002C081E001C080E02796E5E00C941E7188
:10335000A7E0B0E0EEEAF9E10C940271F82E8B01DF
:10336000682F70E080E090E026E130E040E050E03F
:103370000E9481706C5F7F4F8F4F9F4FA80123E0A9
:103380000E94F3178823E1F48091E20182FF1AC0C2
:103390008BE08F83FC8282E08D8381E292E064E0A7
:1033A000AE014C5F5F4F0E94823619821A8288E01C
:1033B0008B838F2DBE016F5F7F4F0E94272E02C02F
:1033C00081E001C080E02796E5E00C941E71A7E043
:1033D000B0E0EDEEF9E10C940271F82E8B01682F4C
:1033E00070E080E090E026E130E040E050E00E94B4
:1033F0008170A80123E00E94F3178823E1F48091F3
:10340000E20182FF1AC08AE08F83FC8281E08D8313
:1034100081E292E064E0AE014C5F5F4F0E94823631
:1034200082E189831A821B828F2DBE016F5F7F4FDD
:103430000E94442E02C081E001C080E02796E5E0B2
:103440000C941E71A5E0B0E0E8E2FAE10C9405717D
:1034500085E090E0A0E0B0E080932D0390932E03F0
:10346000A0932F03B093300381E00E94A717882315
:1034700061F0CE01019665E00E944317882329F090
:1034800081E00E94901381E001C080E02596E2E097
:103490000C942171A0E1B0E0E0E5FAE10C94F57044
:1034A0006B877C878D879E874F87588BB22ECA018A
:1034B000622F0E942C068A8799248E010F5F1F4F6E
:1034C0004B2C55241801240C351CAB2CA39481E003
:1034D0000E9490139F858889E92EF82E3801C20139
:1034E0008E0D9F1DD801F70102C021912D93E81781
:1034F000F907D9F7EA85D101EC938B859C85AD85D9
:10350000BE8580932D0390932E03A0932F03B09339
:10351000300380E00E94A717882309F493C08091AC
:103520002D0390912E03A0912F03B091300380932F
:10353000310390933203A0933303B0933403BD9AC5
:10354000C598680188242BC0809131039091320383
:10355000A0913303B09134038130E0E29E07E0E0B4
:10356000AE07E0E0BE07F0F4D6018D916D010E9438
:10357000A5138823B9F08091310390913203A09173
:103580003303B09134030196A11DB11D8093310323
:1035900090933203A0933303B093340383948A143B
:1035A00098F28A2CBD9AC59A80913103909132038A
:1035B000A0913303B091340380932D0390932E0395
:1035C000A0932F03B09330038A14D1F48091E201C9
:1035D00086608093E20180E00E9490138B859C8539
:1035E000AD85BE8580932D0390932E03A0932F036A
:1035F000B093300381E00E94A717882319F103C01C
:103600000E940F171FC0C8016A2D0E94431788230C
:10361000C9F080E009C0D3012D913D01F7019191DE
:103620007F01291779F48F5F8B15A8F38B1551F45F
:10363000D1018C91BA858B1729F481E00E949013F7
:1036400081E009C09394E92DE23009F040CF81E098
:103650000E94901380E06096E2E10C941171A2E068
:10366000B0E0E5E3FBE10C94037189E09FEF9A83FE
:10367000898367ED7FE180E090E08E010F5F1F4F4F
:10368000A80122E00E944A1A882341F06AED7FE1F6
:1036900080E090E0A80122E00E944A1A2296E4E02D
:1036A0000C941F71A0E0B0E0E8E5FBE10C94FF7022
:1036B000EB01682F70E080E090E02CE330E040E028
:1036C00050E00E9481707B018C0188E391E0A0E0D2
:1036D000B0E0E80EF91E0A1F1B1FC801B701AE01BA
:1036E00023E00E944A1A882309F4ADC0C801B7013B
:1036F0006C5F7F4F8F4F9F4FAE014D5F5F4F24E058
:103700000E944A1A882309F49EC0C801B701675F66
:103710007F4F8F4F9F4FAE01495F5F4F21E00E9467
:103720004A1A882309F48FC0C801B701655F7F4F2B
:103730008F4F9F4FE8E0CE2ED12CCC0EDD1EA60180
:1037400028E00E944A1A882309F47DC0C801B70105
:103750006C5E7F4F8F4F9F4FA601485F5F4F28E001
:103760000E944A1A882309F46EC0C801B701635E3B
:103770007F4F8F4F9F4FAE01485E5F4F28E00E9402
:103780004A1A882309F45FC0C801B7016A5D7F4FF8
:103790008F4F9F4FAE01405E5F4F27E00E944A1A55
:1037A000882309F450C0C801B701625D7F4F8F4F75
:1037B0009F4FAE01485D5F4F23E00E944A1A882365
:1037C00009F441C0C801B7016E5C7F4F8F4F9F4F16
:1037D000AE01455D5F4F23E00E944A1A882399F1AC
:1037E00086E390E0A0E0B0E0E80EF91E0A1F1B1F80
:1037F000AE01425D5F4FC801B70121E00E944A1A45
:10380000882309F182E090E0A0E0B0E0E80EF91E24
:103810000A1F1B1FAE01495D5F4FC801B70121E0C0
:103820000E944A1A882379F0C801B7016E5F7F4F62
:103830008F4F9F4FAE01415D5F4F21E00E944A1ABA
:1038400091E0882309F490E0892FCDB7DEB7E8E056
:103850000C941B71A1E0B0E0E0E3FCE10C94057175
:103860006983682F70E080E090E02CE330E040E076
:1038700050E00E9481706E587E4F8F4F9F4FAE0177
:103880004F5F5F4F21E00E944A1A91E0882309F4BC
:1038900090E0892F2196E2E00C942171A4E0B0E041
:1038A000E4E5FCE10C940471182F482F50E02BE064
:1038B00030E0429FF001439FF00D529FF00D112424
:1038C000E55CFC4F81E085838091E20182FF11C0BD
:1038D00083E28C83198388E08A8387E292E064E044
:1038E000AE014F5F5F4F0E948236812F61E00E94E0
:1038F0002A1C2496E3E00C9420711F93CF93DF934E
:10390000182FEB01682F70E080E090E02CE330E0AE
:1039100040E050E00E9481706E587E4F8F4F9F4F65
:10392000AE0121E00E94F317882329F4812F0E9421
:103930004E1C80E001C081E0DF91CF911F9108957E
:10394000A1E0B0E0E6EAFCE10C9405716983682F20
:1039500070E080E090E02CE330E040E050E00E9436
:10396000817060597E4F8F4F9F4FAE014F5F5F4F09
:1039700021E00E944A1A91E0882309F490E0892FFF
:103980002196E2E00C942171A4E0B0E0EAECFCE1C5
:103990000C940471182F482F50E02BE030E0429F28
:1039A000F001439FF00D529FF00D1124E55CFC4F98
:1039B00080818E7F80838091E20182FF11C08FE140
:1039C0008C83198387E08A8387E292E064E0AE010A
:1039D0004F5F5F4F0E948236812F60E00E94A01CE3
:1039E0002496E3E00C9420711F93CF93DF93182F5C
:1039F000EB01682F70E080E090E02CE330E040E0E5
:103A000050E00E94817060597E4F8F4F9F4FAE01F2
:103A100021E00E94F317882329F4812F0E94C41CFF
:103A200080E001C081E0DF91CF911F910895A1E076
:103A3000B0E0EDE1FDE10C9405716983682F70E061
:103A400080E090E02CE330E040E050E00E948170A4
:103A500062597E4F8F4F9F4FAE014F5F5F4F21E006
:103A60000E944A1A91E0882309F490E0892F219658
:103A7000E2E00C942171A4E0B0E0E1E4FDE10C94FB
:103A80000471182F482F50E02BE030E0429FF001E6
:103A9000439FF00D529FF00D1124E55CFC4F81E037
:103AA00084838091E20182FF11C082E28C831983BA
:103AB00085E08A8387E292E064E0AE014F5F5F4F6A
:103AC0000E948236812F61E00E94171D2496E3E058
:103AD0000C9420711F93CF93DF93182FEB01682F65
:103AE00070E080E090E02CE330E040E050E00E94A5
:103AF000817062597E4F8F4F9F4FAE0121E00E942F
:103B0000F317882329F4812F0E943B1D80E001C018
:103B100081E0DF91CF911F910895A4E0B0E0E3E947
:103B2000FDE10C940071D82E282F30E08BE090E05E
:103B3000289F8001299F100D389F100D1124F80136
:103B4000E55CFC4F808180FF3DC085E08083B8014B
:103B5000615C7C4F8D2D0E946A1DFCE3EF2EF3E02B
:103B6000FF2EE00EF11E8D2DB7010E94A318B801A3
:103B70006F5B7C4F8D2D0E946608882341F08CE19D
:103B800092E0B7010E94810B8823E1F018C08FE119
:103B900092E061E08E010F5F1F4FA8010E94170D98
:103BA000882381F08D2DB8010E946608882351F08A
:103BB0008CE192E0B7010E94810B882319F48D2DCE
:103BC0000E9413092496E7E00C941C71CF93DF93B5
:103BD000EB01682F70E080E090E02CE330E040E003
:103BE00050E00E94817066597E4F8F4F9F4FAE010B
:103BF00023E00E944A1A91E0882309F490E0892F7B
:103C0000DF91CF910895CF93DF93EB01682F70E0A0
:103C100080E090E02CE330E040E050E00E948170D2
:103C20006A597E4F8F4F9F4FAE0123E00E944A1A80
:103C300091E0882309F490E0892FDF91CF910895D6
:103C4000EF92FF920F931F93CF93DF93EB01682FB7
:103C500070E080E090E02CE330E040E050E00E9433
:103C600081707B018C0183E491E0A0E0B0E0E80E7C
:103C7000F91E0A1F1B1FC801B701AE0128E00E94F0
:103C80004A1A882359F1C801B701675F7F4F8F4FE8
:103C90009F4FAE01485F5F4F28E00E944A1A882379
:103CA000E9F0C801B7016E5E7F4F8F4F9F4FAE01A5
:103CB000405F5F4F28E00E944A1A882379F0C801CC
:103CC000B701655E7F4F8F4F9F4FAE01485E5F4FDC
:103CD00027E00E944A1A91E0882309F490E0892F96
:103CE000CDB7DEB7E6E00C941D71A4E0B0E0EBE7E1
:103CF000FEE10C940471182F8091E20182FF12C042
:103D00008EE18C8319838EE08A8387E292E064E0FF
:103D1000AE014F5F5F4F0E948236812F60E874E0F2
:103D20000E94201E2496E3E00C942071A0E0B0E0F5
:103D3000ECE9FEE10C940071D82EEB01682F70E0E5
:103D400080E090E02CE330E040E050E00E948170A1
:103D50007B018C0183E491E0A0E0B0E0E80EF91E65
:103D60000A1F1B1FC801B701AE0128E00E94F3170C
:103D7000882351F1C801B701675F7F4F8F4F9F4F75
:103D8000AE01485F5F4F28E00E94F3178823E1F0FF
:103D9000C801B7016E5E7F4F8F4F9F4FAE01405FEE
:103DA0005F4F28E00E94F317882371F0C801B70124
:103DB000655E7F4F8F4F9F4FAE01485E5F4F27E09C
:103DC0000E94F317882329F48D2D0E94751E80E030
:103DD00001C081E0CDB7DEB7E7E00C941C71A1E033
:103DE000B0E0E5EFFEE10C9405716983682F70E0A7
:103DF00080E090E02CE330E040E050E00E948170F1
:103E00006F5B7E4F8F4F9F4FAE014F5F5F4F21E043
:103E10000E944A1A91E0882309F490E0892F2196A4
:103E2000E2E00C942171A4E0B0E0E9E1FFE10C9440
:103E30000471182F482F50E02BE030E0429FF00132
:103E4000439FF00D529FF00D1124E55CFC4F82E082
:103E500082878091E20182FF11C08DE18C831983FA
:103E60008DE08A8387E292E064E0AE014F5F5F4FAE
:103E70000E948236812F62E00E94EF1E2496E3E0CA
:103E80000C942071AF92BF92DF92EF92FF920F934A
:103E90001F93CF93DF93D82EEB01682F70E080E063
:103EA00090E02CE330E040E050E00E9481707B0124
:103EB0008C0188E391E0A0E0B0E0E80EF91E0A1F53
:103EC0001B1FC801B701AE0123E00E94F31788232E
:103ED00021F48D2D0E94BD06C5C0C801B7016C5FDD
:103EE0007F4F8F4F9F4FAE014D5F5F4F24E00E9489
:103EF000F317882321F48D2D0E94E306B3C0C80177
:103F0000B701675F7F4F8F4F9F4FAE01495F5F4F94
:103F100021E00E94F317882321F48D2D0E94131FA6
:103F2000A1C0C801B701655F7F4F8F4F9F4FA8E0C9
:103F3000AA2EB12CAC0EBD1EA50128E00E94F317DD
:103F40008823C9F1C801B7016C5E7F4F8F4F9F4F27
:103F5000A501485F5F4F28E00E94F317882359F1BD
:103F6000C801B701635E7F4F8F4F9F4FAE01485E20
:103F70005F4F28E00E94F3178823E9F0C801B701DA
:103F80006A5D7F4F8F4F9F4FAE01405E5F4F27E0CE
:103F90000E94F317882379F0C801B701625D7F4F53
:103FA0008F4F9F4FAE01485D5F4F23E00E94F31794
:103FB000882349F404C08D2D0E94751E53C08D2D99
:103FC0000E9420074FC0C801B7016E5C7F4F8F4F22
:103FD0009F4FAE01455D5F4F23E00E94F31788239A
:103FE00021F48D2D0E9446073DC086E390E0A0E0BD
:103FF000B0E0E80EF91E0A1F1B1FAE01425D5F4FC5
:10400000C801B70121E00E94F317882321F48D2D08
:104010000E943B1D27C082E090E0A0E0B0E0E80EE7
:10402000F91E0A1F1B1FAE01495D5F4FC801B70192
:1040300021E00E94F317882321F48D2D0E94C41CD7
:1040400011C0C801B7016E5F7F4F8F4F9F4FAE0108
:10405000415D5F4F21E00E94F317882329F48D2DE5
:104060000E944E1C80E001C081E0DF91CF911F9142
:104070000F91FF90EF90DF90BF90AF9008951F9346
:10408000CF93DF93182FEB01682F70E080E090E072
:104090002CE330E040E050E00E9481706F5B7E4F87
:1040A0008F4F9F4FAE0121E00E94F317882329F420
:1040B000812F0E94131F80E001C081E0DF91CF912A
:1040C0001F910895A3E2B0E0E8E6F0E20C94FE70E0
:1040D000B82E0E946611EB2CFF248BE090E0E89E46
:1040E0008001E99E100DF89E100D1124F801E55C89
:1040F000FC4F8081817E84608083B2E0CB2ED12C06
:10410000CC0EDD1E8B2DB6010E945D18882309F4AC
:104110005AC0B8016F5B7C4F8B2D0E94801888239A
:1041200009F451C08B2DB6010E943A18882309F476
:104130004AC0B801615C7C4F8B2D0E946A1D8823A8
:1041400009F441C0B8016B5B7C4F8B2D0E943F206E
:104150008823C9F1B801605C7C4F8B2D0E947D1CC7
:10416000882389F18B2DBE016B5F7F4F0E94961EC5
:10417000882349F1B801645C7C4F8B2D0E94A31801
:10418000882309F18B2DBE016F5F7F4F0E94F41CC5
:104190008823C9F08981882331F0F801E55CFC4F60
:1041A000808181600DC08BE090E0E89EF001E99E87
:1041B000F00DF89EF00D1124E55CFC4F80818E7FA0
:1041C000808381E001C080E0A396E9E00C941A713D
:1041D000A4E0B0E0EEEEF0E20C940271F82E90E074
:1041E0002BE030E0829F8001839F100D929F100D85
:1041F0001124B801645C7C4F8CE192E0AE014F5F0A
:104200005F4F0E94160B8823E1F089819A81AB8170
:10421000BC8181309105A105B10539F4F801E55C57
:10422000FC4F8081826080830FC00097A105B1059B
:1042300069F0F801E55CFC4F908181E091FD07C0D9
:1042400003C08F2D0E94622080E001C081E024968F
:10425000E5E00C941E71A7E0B0E0E1E3F1E20C941C
:104260000071D82E0E9466118D2D90E02BE030E079
:10427000829FF001839FF00D929FF00D1124E55C69
:10428000FC4F2481222311F0215024832BE030E0C5
:10429000829F7001839FF00C929FF00C1124F70114
:1042A000E55CFC4F8481882311F18081817F8061EE
:1042B00080838D2D8E010F5F1F4FB8010E943A1829
:1042C0008823A9F08CE192E0B801AE014C5F5F4F0A
:1042D0000E94500B882359F06C817D818E819F81D3
:1042E000A701445C5C4F0E94B90A882319F48D2D04
:1042F0000E9462202796E7E00C941C71CF93DF9315
:10430000EB01682F70E080E090E02CE330E040E0CB
:1043100050E00E948170645C7E4F8F4F9F4FAE01D2
:1043200024E00E944A1A91E0882309F490E0892F42
:10433000DF91CF910895CF93DF93EB01682F70E069
:1043400080E090E02CE330E040E050E00E9481709B
:10435000685C7E4F8F4F9F4FAE0123E00E944A1A48
:1043600091E0882309F490E0892FDF91CF9108959F
:10437000A1E0B0E0EEEBF1E20C9405716983682FE7
:1043800070E080E090E066567F4F8F4F9F4F660F42
:10439000771F881F991FAE014F5F5F4F21E00E947A
:1043A0004A1A91E0882309F490E0892F2196E2E0EF
:1043B0000C942171A1E0B0E0E0EEF1E20C94057103
:1043C0006983682F70E080E090E02AE030E040E010
:1043D00050E00E948170685D7E4F8F4F9F4FAE010D
:1043E0004F5F5F4F21E00E944A1A91E0882309F451
:1043F00090E0892F2196E2E00C942171A4E0B0E0D6
:10440000E4E0F2E20C940271F82E8B01682F70E068
:1044100080E090E02AE030E040E050E00E948170CF
:10442000685D7E4F8F4F9F4FA80121E00E94F317D8
:10443000882319F581E090E00F2C02C0880F991FA6
:104440000A94E2F72091B707282B2093B7078091B1
:10445000E20182FF14C08AE18C83F98289E08A83B9
:1044600080E392E064E0AE014F5F5F4F0E948236CE
:104470008F2D61E00E94DA2102C081E001C080E05E
:104480002496E5E00C941E71A1E0B0E0EAE4F2E2CB
:104490000C9405716983682F70E080E090E02AE059
:1044A00030E040E050E00E9481706A5D7E4F8F4FA7
:1044B0009F4FAE014F5F5F4F21E00E944A1A91E08B
:1044C000882309F490E0892F2196E2E00C94217171
:1044D0001F93182F0E94630F21E030E0012E02C0CD
:1044E000220F331F0A94E2F720958091B607282304
:1044F0002093B607812F60E00E94442291E0882338
:1045000009F490E0892F1F910895A4E0B0E0EBE852
:10451000F2E20C940271F82E8B01682F70E080E0BB
:1045200090E02AE030E040E050E00E9481706A5D57
:104530007E4F8F4F9F4FA80121E00E94F3178823E1
:1045400021F581E090E00F2C02C0880F991F0A949A
:10455000E2F780959091B60789238093B607809102
:10456000E20182FF14C089E18C83F98287E08A83AB
:1045700080E392E064E0AE014F5F5F4F0E948236BD
:104580008F2D60E00E94442202C081E001C080E0E3
:104590002496E5E00C941E71A2E0B0E0E2EDF2E2B8
:1045A0000C9405717A836983682F70E080E090E055
:1045B0002AE030E040E050E00E9481706D5D7E4F67
:1045C0008F4F9F4FAE014F5F5F4F22E00E944A1A0C
:1045D00091E0882309F490E0892F2296E2E00C9480
:1045E0002171A4E0B0E0E7EFF2E20C940271F82E42
:1045F0008B01682F70E080E090E02AE030E040E03E
:1046000050E00E9481706D5D7E4F8F4F9F4FA801DB
:1046100022E00E94F317882309F5EF2DF0E0EE0F5A
:10462000FF1FE454F84F80E092E0918380838091F3
:10463000E20182FF15C088E18C83F9828BE08A83D6
:1046400080E392E064E0AE014F5F5F4F0E948236EC
:104650008F2D60E072E00E94CC2202C081E001C098
:1046600080E02496E5E00C941E71A2E0B0E0EBE35C
:10467000F3E20C9405717A836983682F70E080E01F
:1046800090E02AE030E040E050E00E948170605EFF
:104690007E4F8F4F9F4FAE014F5F5F4F22E00E94D2
:1046A0004A1A91E0882309F490E0892F2296E2E0EB
:1046B0000C942171A4E0B0E0E0E6F3E20C94027106
:1046C000F82E8B01682F70E080E090E02AE030E067
:1046D00040E050E00E948170605E7E4F8F4F9F4FA0
:1046E000A80122E00E94F317882309F5EF2DF0E0DE
:1046F000EE0FFF1FE854F84F80EE91E09183808326
:104700008091E20182FF15C087E18C83F9828AE003
:104710008A8380E392E064E0AE014F5F5F4F0E94C6
:1047200082368F2D60EE71E00E94352302C081E059
:1047300001C080E02496E5E00C941E71A1E0B0E099
:10474000E4EAF3E20C9405716983682F70E080E07D
:1047500090E02EE030E040E050E00E948170645430
:104760007F4F8F4F9F4FAE014F5F5F4F21E00E9401
:104770004A1A91E0882309F490E0892F2196E2E01B
:104780000C942171A4E0B0E0E8ECF3E20C94027127
:10479000F82E8B01682F70E080E090E02EE030E092
:1047A00040E050E00E94817064547F4F8F4F9F4FD4
:1047B000A80121E00E94F317882319F581E090E019
:1047C0000F2C02C0880F991F0A94E2F720917D07F1
:1047D000282B20937D078091E20182FF14C086E19F
:1047E0008C83F98289E08A838AE292E064E0AE01F8
:1047F0004F5F5F4F0E9482368F2D61E00E949E23A3
:1048000002C081E001C080E02496E5E00C941E71B6
:10481000A1E0B0E0EEE0F4E20C9405716983682F4A
:1048200070E080E090E02EE030E040E050E00E9458
:10483000817066547F4F8F4F9F4FAE014F5F5F4F28
:1048400021E00E944A1A91E0882309F490E0892F20
:104850002196E2E00C942171A1E0B0E0E2E3F4E201
:104860000C9405716983682F70E080E090E02EE081
:1048700030E040E050E00E94817068547F4F8F4FDD
:104880009F4FAE014F5F5F4F21E00E944A1A91E0B7
:10489000882309F490E0892F2196E2E00C9421719D
:1048A000A4E0B0E0E6E5F4E20C940271F82E8B018E
:1048B000682F70E080E090E02EE030E040E050E0D3
:1048C0000E94817068547F4F8F4F9F4FA80121E055
:1048D0000E94F3178823E1F4EF2DF0E0E458F84F3D
:1048E0008FE782AB8091E20182FF14C084E18C8368
:1048F000F98286E08A838AE292E064E0AE014F5F4B
:104900005F4F0E9482368F2D6FE70E942C2402C0D9
:1049100081E001C080E02496E5E00C941E71CF9305
:10492000DF93EB01682F70E080E090E02EE030E054
:1049300040E050E00E9481706C547F4F8F4F9F4F3A
:10494000AE0123E00E944A1A91E0882309F490E026
:10495000892FDF91CF910895CF93DF93EB01682FDB
:1049600070E080E090E02EE030E040E050E00E9417
:10497000817060557F4F8F4F9F4FAE0123E00E94A3
:104980004A1A91E0882309F490E0892FDF91CF91B2
:104990000895A1E0B0E0EFECF4E20C940071D62EA3
:1049A000682F70E080E090E026E130E040E050E0E9
:1049B0000E9481707B018C0184E190E0A0E0B0E076
:1049C000E80EF91E0A1F1B1FC801B701AE014F5F99
:1049D0005F4F21E00E94F317882391F08981DD2049
:1049E00011F0826001C08D7F8983C801B701AE01DB
:1049F0004F5F5F4F21E00E944A1A91E0882309F43B
:104A000090E0892F2196E7E00C941C71A1E0B0E0C2
:104A1000ECE0F5E20C940071D62E682F70E080E097
:104A200090E026E130E040E050E00E9481707B01A0
:104A30008C0184E190E0A0E0B0E0E80EF91E0A1FCE
:104A40001B1FC801B701AE014F5F5F4F21E00E94FD
:104A5000F317882391F08981DD2011F0816001C076
:104A60008E7F8983C801B701AE014F5F5F4F21E0A0
:104A70000E944A1A91E0882309F490E0892F219638
:104A8000E7E00C941C71A4E0B0E0E9E4F5E20C94DA
:104A90000071D82E21E030E002C0220F331F8A952A
:104AA000E2F720958091EA0182238093EA018091C8
:104AB000EB0182238093EB018091E20182FF25C00C
:104AC00081E18C83D9828FE08A8352E8E52E56E318
:104AD000F52E81E292E064E08E010F5F1F4FA80186
:104AE000F70109958D2D60E00E94062582E18C83F7
:104AF000D98280E18A8381E292E064E0A801F70133
:104B000009958D2D60E00E9406252496E7E00C941F
:104B10001C71A1E0B0E0EFE8F5E20C940271F82E10
:104B20008B01682F70E080E090E026E130E040E00B
:104B300050E00E9481706C5E7F4F8F4F9F4FAE019F
:104B40004F5F5F4F21E00E94F317882329F48F2DD8
:104B50000E94432580E00AC0898181FF04C081E072
:104B6000F801808303C0F801108281E02196E5E01E
:104B70000C941E71A1E0B0E0E0ECF5E20C9402713F
:104B8000F82E8B01682F70E080E090E026E130E0A5
:104B900040E050E00E9481706C5E7F4F8F4F9F4FCE
:104BA000AE014F5F5F4F21E00E94F317882329F485
:104BB0008F2D0E94432580E00AC0898180FF04C0B8
:104BC00081E0F801808303C0F801108281E0219622
:104BD000E5E00C941E71A1E0B0E0E1EFF5E20C9489
:104BE00005716983682F70E080E090E026E130E095
:104BF00040E050E00E9481706E5E7F4F8F4F9F4F6C
:104C0000AE014F5F5F4F21E00E944A1A91E0882376
:104C100009F490E0892F2196E2E00C942171A4E040
:104C2000B0E0E5E1F6E20C940271F82E8B01682FFA
:104C300070E080E090E026E130E040E050E00E944B
:104C400081706E5E7F4F8F4F9F4FA80121E00E94C1
:104C5000F3178823D9F4EF2DF0E0EB51FE4F17A2A4
:104C60008091E20182FF14C080E18C83F98288E0A8
:104C70008A8381E292E064E0AE014F5F5F4F0E9461
:104C800082368F2D60E00E94EB2502C081E001C0DA
:104C900080E02496E5E00C941E71A1E0B0E0E3E52D
:104CA000F6E20C9405716983682F70E080E090E073
:104CB00026E130E040E050E00E948170605F7F4F6D
:104CC0008F4F9F4FAE014F5F5F4F21E00E944A1A06
:104CD00091E0882309F490E0892F2196E2E00C947A
:104CE0002171A1E0B0E0E7E7F6E20C940571898359
:104CF0000E94661121E030E08981082E02C0220F57
:104D0000331F0A94E2F720959091E501292320931F
:104D1000E50160E00E944D2691E0882309F490E0CF
:104D2000892F2196E2E00C942171A1E0B0E0EBE93B
:104D3000F6E20C9405716983682F70E080E090E0E2
:104D400026E130E040E050E00E948170625F7F4FDA
:104D50008F4F9F4FAE014F5F5F4F21E00E944A1A75
:104D600091E0882309F490E0892F2196E2E00C94E9
:104D70002171A4E0B0E0EFEBF6E20C940271F82EA2
:104D80008B01682F70E080E090E026E130E040E0A9
:104D900050E00E948170625F7F4F8F4F9F4FA8014C
:104DA00021E00E94F3178823E1F4EF2DF0E0EB51AE
:104DB000FE4F8FE787A78091E20182FF14C08EE04B
:104DC0008C83F98286E08A8381E292E064E0AE011E
:104DD0004F5F5F4F0E9482368F2D6FE70E949526AE
:104DE00002C081E001C080E02496E5E00C941E71D1
:104DF000A1E0B0E0EEEFF6E20C9405716983682F54
:104E000070E080E090E026E130E040E050E00E9479
:104E10008170645F7F4F8F4F9F4FAE014F5F5F4F39
:104E200021E00E944A1A91E0882309F490E0892F3A
:104E30002196E2E00C942171A4E0B0E0E2E2F7E216
:104E40000C940271F82E8B01682F70E080E090E0E6
:104E500026E130E040E050E00E948170645F7F4FC7
:104E60008F4F9F4FA80121E00E94F3178823E1F4A0
:104E7000EF2DF0E0EB51FE4F81E0878F8091E20152
:104E800082FF14C08DE08C83F98285E08A8381E201
:104E900092E064E0AE014F5F5F4F0E9482368F2D3B
:104EA00061E00E94F82602C081E001C080E0249603
:104EB000E5E00C941E71A5E0B0E0E1E6F7E20C94A9
:104EC0000071F82E0E94661181E090E00F2C02C064
:104ED000880F991F0A94E2F7E82EE0942091E601EA
:104EE0002E212093E601D82E8091E7018D29809311
:104EF000E7018091E8018E218093E8018091E9012A
:104F00008E218093E9018E010D5F1F4F8F2DB80117
:104F10000E94A819882309F455C08F2DB8010E945A
:104F20006919882309F44EC00F2D10E0B8016C5F99
:104F30007D4F8F2D0E941C27882309F443C0B801A0
:104F40006C5E7D4F8F2D0E94B9268823D9F1B80160
:104F5000645F7D4F8F2D0E940F26882399F18F2D3E
:104F6000BE016F5F7F4F0E94BA25882359F1998156
:104F70008091EA01992311F08D2901C08E2180933F
:104F8000EA018F2DBE016E5F7F4F0E948925882325
:104F9000C9F09A818091EB01992321F08D298093AA
:104FA000EB0103C0E822E092EB01B801660F771F26
:104FB000600F711F64517E4F8F2D0E94E71991E0A1
:104FC000882309F490E0892F2596E7E00C941C7162
:104FD000A4E0B0E0EEEEF7E20C940471182F90E03C
:104FE000BC01660F771F680F791F64517E4F8CE1FB
:104FF00092E0AE014F5F5F4F0E94160B8823B9F11C
:1050000029813A814B815C8121303105410551056F
:1050100071F481E090E0012E02C0880F991F0A947C
:10502000E2F72091E601282B2093E60123C0211509
:1050300031054105510559F08091E60190E0012EBE
:1050400002C0959587950A94E2F780FF13C081E02E
:1050500090E0012E02C0880F991F0A94E2F7809514
:105060009091E60189238093E60181E004C0812FBD
:105070000E945B2780E02496E3E00C9420711F934C
:10508000182F2091EB0130E0082E02C035952795AE
:105090000A94E2F720FF04C00E947126882321F0C1
:1050A000812F0E945B2701C080E01F910895AF927D
:1050B000BF92DF92EF92FF920F931F93DF93CF93F4
:1050C00000D0CDB7DEB78091D807882309F08CC017
:1050D000EBE3F3E040E0FF249E012F5F3F4F808130
:1050E00090E080FF21C082FD1FC088719070009702
:1050F000D9F01F2D123098F0A091E501B0E0E091B9
:10510000E701AE2EBB246091E80170E04091E90117
:1051100050E080E090E09E012F5F3F4F0AC0D90130
:10512000AF0DB11D4C93F3944F5F3B964336B9F6E8
:10513000E3CFE82E8D01082E02C0159507950A943D
:10514000E2F700FF26C08501082E02C015950795DD
:105150000A94E2F700FD1DC08B01082E02C01595D0
:1051600007950A94E2F700FD09C08A01082E02C0E3
:10517000159507950A94E2F700FF0BC0EF2DE2307A
:1051800000F589010F0D111DF0E8EF2AF801E0820A
:10519000F39401968830910561F6FF2029F1FF2DE7
:1051A000F13079F4898187FF04C08F770E943F280E
:1051B00002C00E94622080912103816080932103BC
:1051C00013C0E091F502F091F6023996898185834A
:1051D0008A818683178281E08093D80782E192E0FA
:1051E00061E043E00E9442100F900F90CF91DF9159
:1051F0001F910F91FF90EF90DF90BF90AF900895B7
:10520000A7E0B0E0E6E0F9E20C940271F82E0E940B
:1052100066118F2D90E0FC01EB51FE4F278D22236C
:1052200011F02150278F8B519E4FFC01878D8823D1
:1052300021F48F2D0E943F2845C081E090E00F2C83
:1052400002C0880F991F0A94E2F7382F30952091F9
:10525000E60123232093E6012091E70123232093F5
:10526000E7012091E80123232093E8012091E9013F
:10527000282B2093E9018F2D8E010F5F1F4FB8015E
:105280000E9469198823D9F08CE192E0B801AE013F
:105290004C5F5F4F0E94500B882389F06C817D81A9
:1052A0008E819F812F2D30E0A901440F551F420FA1
:1052B000531F44515E4F0E94B90A882319F48F2D61
:1052C0000E945B272796E5E00C941E7180913402C2
:1052D0008823A1F080913802813029F4809139022D
:1052E0000E94002906C0843021F4809139020E9476
:1052F0002B21809121038160809321030895E09107
:10530000F502F091F60223819091F702291709F036
:10531000DCC090913A02992309F4D7C0209121036F
:1053200021FD11C09D3319F0953309F0D0C0809153
:10533000210310921D0310923A028360809321038F
:1053400010922003C2C020912003291729F09093C6
:10535000200310921E0305C020911E032F5F20938F
:105360001E03923679F480911D03882331F48091D5
:1053700021038D7F8093210303C0815080931D03FF
:1053800080E24FC09D33B9F4E0911D03EE2309F490
:105390009AC0809121038D7F8093210310923A025D
:1053A000F0E0E350FD4F10828091210381608093F3
:1053B000210381E00895292F20532230D0F5A091B8
:1053C0001E03AA23F1F06A2F70E0492F50E04F70BE
:1053D0005070E7EFFFEF4E9F90014F9F300D5E9FA3
:1053E000300D1124205F3F4F261737070CF450C0B3
:1053F0002A2F215E9F703AE1939F902D1124290F4F
:1054000056C090911D03981718F49F5F90931D0349
:10541000E0911D03F0E0E450FD4F80913A0280835B
:1054200086E8809323038091210381608093210388
:105430004AC09E3279F480911F038F3D11F480E4BD
:1054400006C0803611F49FE501C090E2890F809379
:105450001F0339C0292F2253283060F520911F03E4
:10546000213618F4993331F407C02F3B40F421E47E
:1054700020931F0323E001C025E033E002C024E0B5
:1054800034E040911E03442309F4BBCF241718F4E1
:1054900010921E03BDCF20911F03240F892F90E08F
:1054A0008F7090700297389F802D1124280F2093C1
:1054B0003A02AECF913619F40E946C0704C09436BC
:1054C00011F40E94662910923A0280E0089580E06B
:1054D00008952091210390913A0221FD0FC09D3340
:1054E00019F0953309F07BC08091210310921D03C0
:1054F00010923A028360809321036FC0923679F450
:1055000080911D03882321F42D7F2093210303C064
:10551000815080931D0380E2809323033CC09D3320
:10552000A9F4E0911D03EE2309F455C02D7F2093CB
:10553000210310923A02F0E0E350FD4F1082809177
:10554000210381608093210381E008959E3249F513
:1055500090911D03992351F48DE28093FD0281E027
:1055600080931D0321602093210335C0981798F57F
:10557000EDEFF2E080E004C021912E3261F18F5F07
:105580008917D0F3E92FF0E0E350FD4F8EE28083DE
:105590009F5F90931D03809121038160809321037D
:1055A0001AC0292F20532A3068F420911D03281790
:1055B00090F4E22FF0E0E350FD4F90832F5F2093B3
:1055C0001D03E9CF913619F40E946C0704C094368C
:1055D00011F40E94662910923A0280E0089580E05A
:1055E0000895A8E0B0E0E7EFFAE20C94F7704C0100
:1055F0002A013B01580169018E2DE091F502F091DD
:10560000F60223819091F702291709F041C0909189
:105610003A029923E9F10E94692A8823C9F18DEFA2
:1056200092E0B4010E943E05882331F480E295E0C7
:1056300065E040E050E02AC0F401E080F1800281A2
:105640001381C601B501A80197010E94656C87FF0F
:105650000BC0A982BA82CB82DC8289E295E065E048
:10566000AE014F5F5F4F12C0C801B701A3019201A5
:105670000E94656C87FF0EC04D825E826F827886C5
:105680008CE295E065E0AE014B5F5F4F0E94823691
:1056900080E001C081E02896E0E10C9413714F9204
:1056A0005F926F927F928F929F92AF92BF92CF92B2
:1056B000DF92EF920F931F93DF93CF93CDB7DEB7B7
:1056C0002897DEBFCDBF6C012A013B01480159017B
:1056D0008E2DE091F502F091F60223819091F70270
:1056E000291709F05CC090913A02992309F457C038
:1056F0009E3209F454C00E94692A882309F44FC0DD
:10570000F60110821182128213820DEF12E020C086
:105710008F708A3010F5F6016081718182819381EA
:105720002AE030E040E050E00E948170F6016083A2
:10573000718382839383F80121918F012F70620F0F
:10574000711D811D911DF601608371838283938396
:10575000F80180818823E1F638C080E295E065E0B9
:1057600040E050E01AC089829A82AB82BC8283E218
:1057700095E065E0AE014F5F5F4F0FC08415950562
:10578000A605B70570F44D825E826F82788686E248
:1057900095E065E0AE014B5F5F4F0E94823680E08E
:1057A00001C081E02896DEBFCDBFCF91DF911F9170
:1057B0000F91EF90DF90CF90BF90AF909F908F9020
:1057C0007F906F905F904F900895F6018081918156
:1057D000A281B38188169906AA06BB0678F6C3CFC4
:1057E000A1E0B0E0E6EFFBE20C940471182FE09129
:1057F000F502F091F60223818091F702281709F053
:105800004FC080913A02882309F44AC086E0998308
:105810000E94692A9981882309F442C0EDEFF2E0E1
:1058200080E02191222369F420E306C0E82FF0E014
:10583000E350FD4F20838F5F8630C0F31092030347
:1058400003C08F5F863069F7E12FF92F9091FD0239
:105850009295907F90838091FE028F70892B808338
:105860009091FF029295907F9183809100038F70B9
:10587000892B8183909101039295907F92838091EF
:1058800002038F70892B8283CF010E941A0A88231A
:1058900049F480E295E065E040E050E00E94823605
:1058A00080E001C081E02196E3E00C942071E0915A
:1058B000F502F091F60293818091F702981771F545
:1058C00080913A02882351F18833C1F0893338F44A
:1058D000823389F08533A9F08E32F1F41BC0823611
:1058E00081F0833628F48D3361F08136A9F40CC041
:1058F000843691F40CC00E946A100EC00E94D5102C
:105900000BC00E945D1008C00E946C0705C00E9479
:10591000662902C00E94572810923A020895A3E017
:10592000B0E0E5E9FCE20C940371E091F502F0913E
:10593000F60285818E010F5F1F4FB8010E94E719A3
:105940008EE892E0B8010E94BE53E091F502F0911A
:10595000F6029091F7028381981749F480913A02F8
:105960008D3311F0853319F485810E943F28809191
:105970003A028D3321F0853311F0823639F4E0910B
:10598000F502F091F60285810E943F280E94572C73
:105990002396E4E00C941F71E091F502F091F60279
:1059A00093818091F7029817E1F580913A0288235C
:1059B000C1F1813661F1823638F4823361F0883387
:1059C00069F08E3261F529C0833689F0833648F05C
:1059D000843629F51FC00E946A1021C00E94D5108C
:1059E0001EC03997F093F602E093F5020DC081E4F2
:1059F00092E09093F6028093F50281E08093450255
:105A000010924302109244020E94A20F08C00E940A
:105A10006C0705C00E94662902C00E945728109298
:105A20003A020895E091F502F091F6023381209157
:105A3000F702321771F420913A02222351F02D33EC
:105A400011F0253321F443E00E94421008950E9492
:105A5000CC2C0895A6E1B0E0E0E3FDE20C94F970EF
:105A6000F82EC82EDD248091E50190E00F2C02C0B5
:105A7000959587950A94E2F780FFB1C081E090E0A8
:105A80000F2C02C0880F991F0A94E2F7282F209547
:105A90003091E60132233093E6013091E701382B53
:105AA0003093E7018091E80182238093E80180919F
:105AB000E90182238093E901B6016C5F7D4F8F2D50
:105AC0000E941C278601000F111F0C0D1D1D045183
:105AD0001E4F8F2DB8010E94E71985EE91E0C80E88
